:100000000C943E010C945B010C945B010C941C1845
:100010000C945B010C945B010C945B010C945B01F0
:100020000C945B010C945B010C94D01F0C94A420E5
:100030000C94D91A0C945B010C945B010C945B0139
:100040000C945B010C945B010C945B010C945B01C0
:100050000C945B010C947C1B0C945B010C945B0175
:100060000C945B010C945B010C945B010C945B01A0
:100070000C945B010C945B010C945B010C945B0190
:100080000C945B010C945B010C945B010C945B0180
:100090000C945B010C945B010C945B010C945B0170
:1000A0000C945B010C945B010C945B0114001A002E
:1000B00008001500170004001600070009000A00D8
:1000C0001D001B00060019000500000000000000D4
:1000D00028002C00130012000C0018001C00330034
:1000E0000F000E000D000B00380037003600100026
:1000F00011000000000000004C002A001003630003
:1001000068006900700073003300340000002403AD
:1001100041006C006500780061006E0064006500BD
:10012000720020004900720065006C0061006E00E2
:10013000640000000403090409023B00020100A05E
:10014000FA09040000010301010009211101000165
:100150002240000705810308000109040100010392
:1001600000000009211101000122B60007058203E9
:100170002000011201000200000008EDFE00000056
:10018000010102000105010902A10185020901A185
:100190000005091901290815002501950875018137
:1001A000020501093009311581257F950275088105
:1001B0000609381581257F950175088106050C0A09
:1001C00038021581257F950175088106C0C005019B
:1001D0000980A101850319012AB700150126B7007E
:1001E000950175108100C0050C0901A10185041954
:1001F000012AA002150126A002950175108100C0F8
:1002000005010906A1018506050719E029E7150082
:1002100025019508750181020507190029EF1500D0
:10022000250195F07501810205081901290595053B
:1002300075019102950175039101C005010906A19F
:1002400001050719E029E7150025019508750181C9
:10025000029501750881010507190029FF1500267F
:10026000FF00950675088100050819012905950507
:1002700075019102950175039101C00011241FBE03
:10028000CFEFDAE0DEBFCDBF11E0A0E0B1E0E6EBFA
:10029000F6E402C005900D92A03CB107D9F722E028
:1002A000A0ECB1E001C01D92A73FB207E1F70E94A8
:1002B00025130C941A230C940000811112C068308D
:1002C00080F4453070F4E42FF0E085E0689FE00DA5
:1002D000F11D1124EE0FFF1FE455FF4F85919491FE
:1002E000089580E090E008950E945D01089581E006
:1002F000089581E008950E947901089508950E946B
:100300007E010895A5E0B0E0E8E8F1E00C948622D3
:1003100049835A833091C70189819A81311119C06B
:10032000662399F0222389F00E946407182F682F12
:1003300089819A810E94400769817A81812F0E9478
:10034000F90D2596E3E00C94A2220E945207182F83
:10035000F3CF0E94640769817A81F1CFFC01262FD7
:10036000408151816281738184810E94820108955C
:1003700081E00895CF93DF93EC0160E00E94AE012D
:10038000BE010E947F01DF91CF9108950E947A0FF4
:1003900008950E947E0F089508950E94A6030E946A
:1003A000CC012FEF84E39CE0215080409040E1F7A6
:1003B00000C0000008950E94CD010E94A01B089576
:1003C0000E94CD010E94B11B08950F931F93CF93FC
:1003D000DF938C0161E00E94AE01EC01B8010E9444
:1003E0007B01811106C080E0DF91CF911F910F91B9
:1003F0000895B801CE010E9438178823A1F3B801EF
:10040000CE010E94CE15882371F3B801CE010E945F
:10041000AA16882341F3F8018281882361F0C33052
:10042000FCE7DF07E9F058F4C115ECE7DE07A9F0B7
:10043000C130DC47B9F0C8010E947701D5CFCB3578
:100440008CE7D807A9F0CC35ECE7DE0771F0CA35A8
:10045000DC4789F70E949E0BEECF0E94DB01C3CFE1
:100460000E94A60B0E94E001BECF0E94940BE3CF36
:100470000E94A20BE0CF0E94B61A0E946502089566
:100480000E9469020E94BB1A089508950E944502C5
:10049000089581E008950895CF93DF93D82F0E94A7
:1004A0004902C82F882319F08D2F0E944B028C2FF0
:1004B000DF91CF9108950895CF93C82F0E944602EF
:1004C0008C2F0E944C02CF91089580E00E945C0224
:1004D00008950E9442190E945C020895CF930E94E1
:1004E0004219C82F8091C2018C1779F0C093C201C4
:1004F0000E94451B6093C3017093C4018093C501A2
:100500009093C6018C2F0E945C02CF91089580E0E9
:100510000895ABE0B0E0EFE8F2E00C9487224F835F
:10052000588769877A878B878A859B85892B21F0F5
:10053000CA0189238F3F59F5898581110E94DF0AFD
:100540001E821D8285E0FE013796DE011196019024
:100550000D928A95E1F78C819D81892B61F4498107
:100560005A816B817C818D819E810E94080A2B9625
:10057000E2E00C94A32289819A8189238F3F79F349
:10058000CE0101960E94B8018111E9CFF0CF809190
:10059000C8019091C90101969093C9018093C80147
:1005A000CBCFFC01808191810E949607089566233C
:1005B00029F00E94A9130E947C1408950E9403143C
:1005C000FACFCF93C82F8823B9F08CEF8C0F813AE4
:1005D000A8F46C2F80910001909101010E94DC1918
:1005E000882329F08C2F0E949F0A0E94000B8C2FD9
:1005F0000E94970A0E94000BCF91089580E28C0F11
:10060000883048F4C77081E001C0880FCA95EAF7C6
:100610000E94C20AEFCFEBE5EC0FE33040F4F0E0CC
:10062000EA57FE4F808190E00E947E19E5CFE8E511
:10063000EC0FE93150F4F0E0EE0FFF1FEC5AFE4FE3
:10064000808191810E94A319D7CF83E38C0F8331DE
:1006500098F661E08C2F0E94D702CECF882381F1DB
:100660009CEF980F913A28F40E949F0A0E94000B79
:10067000089590E2980F983050F4877091E001C08F
:10068000990F8A95EAF7892F0E94C80AEFCF9BE558
:10069000980F933028F490E080E00E947E1908952E
:1006A00098E5980F993128F490E080E00E94A31912
:1006B000089593E3980F933118F460E00E94D702F5
:1006C00008951F93CF93DF93182FEB010E94E1024F
:1006D000209739F4812F0E942E03DF91CF911F9133
:1006E00008958FE99FE00197F1F700C0000021977E
:1006F000EFCF70E060E0893311F460E570E00E94B4
:1007000061030895882321F00E94C20A0E94000B11
:100710000895882321F00E94C80A0E94000B0895C2
:1007200090E080E00E947E1990E080E00E94A31992
:100730000E94DF0A0E94000B0E9498140E947C1401
:1007400008950E94A70A0E94900308950E94CF0A6C
:100750000E94A103089592959F70963091F058F4ED
:10076000925F9F70923058F4803F19F030F4883EC9
:1007700030F481E008959A5FF4CF843FD1F380E0B4
:100780000895883EB0F3813FD1F7F3CFFC01838118
:100790009481892B29F08081918189238F3F11F4E5
:1007A00080E00895808191810E9496070E94AB03AA
:1007B0000895B0E0A0E0EFEDF3E00C9480226C012E
:1007C000EB01FC011281058102950F700E94B80AAD
:1007D000E82E8823B9F0E12E1123A1F08D2F807F20
:1007E000803421F080E28C0F8830D0F08091D302E9
:1007F00082FF16C082E00E94630B0E94B80A91E05B
:10080000E82EE926BD2EB2942FE0B222FBE0FB15C4
:1008100008F467C0EB2DF0E0E45EFC4D0C9471220F
:10082000E12CF0CF2D2F2F70F22E8D2F807F19F01D
:10083000F29490EFF922112399F0FF2059F080E211
:100840008C0F883010F0C11107C08F2D0E94C20A92
:100850000E94000B8C2F3DC08F2D0E94D20AF8CF32
:100860008C2F0E942E03FF20E1F180E28C0F883054
:1008700010F0C11104C08F2D0E94C80A03C08F2D33
:100880000E94D80A0E94000B2CC03D2F3F70F32E0F
:100890008D2F807F803219F0F29480EFF822CC23E4
:1008A00051F0C13009F46AC0112309F472C0002369
:1008B00009F469C0CFCF8091D30282FD3CC01123DF
:1008C00059F0FF2029F08F2D0E94C20A0E94000BD0
:1008D00080E00E94E10205C080E00E942E03F1103A
:1008E000CACFEB2DE850FF0B349720F40E94421939
:1008F0000E945C02CE010E94AB03811160C1109284
:10090000C9011092C801EE2089F00E94B40A80FD4E
:100910000DC0F60112820E94AE0A0E949E06C60118
:100920000E9418060E94AE0A0E94AE06CDB7DEB73E
:10093000E9E00C949C22112381F0011106C00E9471
:10094000E20A8F290E948203CCCF0130C1F70E94B6
:10095000E20A8F290E94E90AC4CF011106C00E9451
:10096000F60A8F2D0E948903BCCF013009F4B9CF5C
:100970008F2D0E9489030E94F60AB3CF112329F01C
:10098000063008F0AECF8F2DDDCF053008F0A9CFAF
:10099000E8CF002331F3C93349F48FEF97EEE3E05A
:1009A00081509040E040E1F700C000008C2F0E9491
:1009B0002E0397CF8D2F86958695837061F08130B9
:1009C00009F08FCFCE019370111102C080E090E04A
:1009D0000E94A31986CFCE019370111102C080E04E
:1009E00090E00E947E197DCF612F8C2F0E94D7024C
:1009F00078CF8D2F8370A9F5111173CF2C2F2295ED
:100A000026952770220F220F4C2F4F7050E0022E98
:100A100002C0440F551F0A94E2F790E080E0C4FF43
:100A200009C08FE090E002C0880F991F2A95E2F775
:100A3000809590952D2F269526952370842B952BA8
:100A4000223049F058F4213019F00E946E0649CF47
:100A50000E94650646CF0E94770643CF0E94620639
:100A600040CF8695112311F08D2F8170882309F4D2
:100A700038CF2C2F229526952770220F220F4C2F2E
:100A80004F7050E0022E02C0440F551F0A94E2F747
:100A900090E080E0C4FF09C08FE090E002C0880FC2
:100AA000991F2A95E2F7809590952D2F26952695EA
:100AB0002370842B952B223049F058F4213019F003
:100AC0000E94D9060ECF0E94D0060BCF0E94E206EC
:100AD00008CF0E94860605CFFD2FFF70FF2E112341
:100AE00029F08F2F0E949E068C2F2CCF8C2F0E94D6
:100AF00089038F2D0E94AE06F4CEC23F41F160F40F
:100B0000C03FB9F0C13F81F0112309F448C0011181
:100B1000A1CE8D2F8F711FC0C33F01F1C43FA1F73C
:100B20008091D30282FD24C08D2F8F71112311F388
:100B300012C0112341F0053008F0D3CE8D2F8F71F4
:100B40000E94C006CECE063008F0CBCEF7CF8D2F58
:100B50008F711111CFCF0E949E06C3CE112329F0B1
:100B60008D2F8F710E949206BCCE0E948D06B9CE49
:100B7000112359F02D2F2F71F22E822F0E949E06E5
:100B800063E08F2D0E94450BACCE81E00E94630B89
:100B9000023008F4A6CE82E00E94630BA2CE0023AE
:100BA00059F0C93309F002CF3FEF87EE93E031509F
:100BB00080409040E1F7F8CE8D2F8F719BCF1123AD
:100BC00019F001119CCE9FCE011199CE20E0F601C3
:100BD000408151816281738184810E948201B601CA
:100BE0000E948702882309F48ACE8091C8019091DF
:100BF000C901029709F083CE8C2F0E9479037FCE22
:100C00000F931F93CF93DF93EC01688179818A81E1
:100C10000E94A1078C010E94EB060E946106B801A8
:100C2000CE010E94D903DF91CF911F910F910895BA
:100C3000CF93DF93EC018B819C81892B29F08881F4
:100C4000998189238F3F51F4DF91CF910895CE018F
:100C50000E940006CE010E94BA01F6CFCE010E948A
:100C6000E5018111F4CF0E94B80A882369F38A81D3
:100C7000882351F38091D30282FFE6CF82E00E9465
:100C8000630BE2CFA5E0B0E0E8E4F6E00C94872245
:100C90002596E2E00C94A322A6E0B0E0E2E5F6E0BF
:100CA0000C9487222696E2E00C94A32208950E94D9
:100CB000560608950E9457069093E1018093E00143
:100CC000089508950E945A0608952091E0013091F8
:100CD000E101822B932B0E945A0608952091E00196
:100CE0003091E101822393230E945A0608952091B6
:100CF000E0013091E101822793270E945A0608956E
:100D00000E94560608950E94800608950E94830658
:100D10009093DF018093DE01089590E080E00E94CF
:100D20008606089521E030E0A90102C0440F551F56
:100D30008A95E2F7CA010E948606089521E030E014
:100D400002C0220F331F8A95E2F78091DE01909155
:100D5000DF01822B932B0E948606089521E030E06C
:100D600002C0220F331F8A95E2F7209530958091BB
:100D7000DE019091DF01822393230E94860608956D
:100D800021E030E002C0220F331F8A95E2F7809104
:100D9000DE019091DF01822793270E948606089545
:100DA0002091DE013091DF01822B932B0E94860679
:100DB00008952091DE013091DF01822393230E9468
:100DC000860608952091DE013091DF018227932766
:100DD0000E94860608950895262F277091E001C08D
:100DE000990F2A95EAF723E0769567952A95E1F71A
:100DF000660F771F660F771FFA01E60FF71F50E0A7
:100E000040E0682F70E08191DF0111979B01042E73
:100E100002C0369527950A94E2F72170219528277C
:100E2000292328272C934F5F5F4F4430510559F7F2
:100E30000895A82FA77023E0969587952A95E1F746
:100E4000880F991F880F991FFB01E80FF91F50E0C9
:100E500040E080E0219130E00A2E02C036952795CF
:100E60000A94E2F721703327042E01C0220F0A945E
:100E7000EAF7822B4F5F5F4F4430510559F70895D1
:100E8000262F983070F4853060F4682F70E085E08C
:100E9000989F600D711D11244AEC51E0822F0E9431
:100EA000EC060895292F983068F4853058F490E0C6
:100EB0006AEC71E035E0239F800D911D11240E94A2
:100EC0001907089580E00895B0E0A0E0EAE6F7E0B1
:100ED0000C9480227C010091DE011091DF01809151
:100EE000E0019091E101082B192BCFE0D0E0CC2458
:100EF000C394D12CBC2EC6010C2E02C0880F991FA2
:100F00000A94E2F780239123892B49F4219790F7E3
:100F1000B12C8B2DCDB7DEB7E9E00C949C22B70144
:100F20008C2F0E94050E019789F3F3CFCF93DF93A7
:100F3000EC010E946407BE010E94050EDF91CF9173
:100F400008951F93CF93DF93EB019091C7019923ED
:100F500039F0CB010E949607DF91CF911F91089540
:100F6000882369F0CB010E946407182F682FCE01F7
:100F70000E944007BE01812F0E94050EEDCFCB01DC
:100F80000E945207182FF6CF1F93CF93DF93C09183
:100F9000E20116E08091E3018C1304C0DF91CF9150
:100FA0001F910895D0E01C9FF0011D9FF00D1124AA
:100FB000EC51FE4F40815181628173818481958122
:100FC0000E944C062196C770E5CF409114025091C3
:100FD000150260911602709117028091180290918B
:100FE00019020E944C0608952091E2019091E301BC
:100FF00056E0291302C080E0089530E0529FF001CE
:10100000539FF00D1124EC51FE4F7181761306C0F1
:101010007081781303C07281741304C02F5F3F4F37
:101020002770E7CF81E008951F93CF93DF938091DE
:101030001902807F09F049C080911602882309F4C3
:1010400044C08091E201C091E3016091140270916B
:101050001502A0911702B0911802D62FD72316E0DF
:10106000C81799F190E0109711F0DF3F19F401963D
:101070008770F6CF189F9001199F300D1124F90148
:10108000EC51FE4F41814713F2CF40814613EFCF21
:1010900042814111ECCF438154814A1B5B0B413E9D
:1010A000510528F7809119028F7080618093190291
:1010B000F901E751FE4F80818F708061808384E168
:1010C00092E00E9418060E94C407DF91CF911F9101
:1010D0000895A1E1B0E0EFE6F8E00C947D228C01E8
:1010E00085E0F801DE011D9601900D928A95E1F7E9
:1010F000D8011296EC90129784E1A82E82E0B82EC7
:1011000040911702509118024115510509F461C12F
:101110009091140220911502892F82238F3F09F4A8
:1011200058C1CC901196DC90119713968D909C909D
:101130001497F0901602F401E41BF50BFF2009F45C
:10114000F6C080911902382F307FE13EF10508F09A
:10115000B0C031117BC0FE2CD21217C09C1115C03B
:10116000E11013C08F708061809319020E94E5071F
:10117000C5010E94180680911902D80115968C931A
:101180008F2D6196ECE00C9499228114910429F042
:101190008D2D8C218F3F09F038C180E080FF15C074
:1011A0004E2D6D2D8C2D0E94F407882371F084E163
:1011B00092E00E94180686E0E4E1F2E0DF011D9271
:1011C0008A95E9F70E94E5073FC08114910429F050
:1011D0008D2D8C218F3F09F015C180E0B82FB170A3
:1011E000AB2E80FF29C04E2D6D2D8C2D0E94F40753
:1011F000B82E811121C0CD86DE868D859E850E9408
:101200009607292F22952F70223050F0243078F441
:101210009F7051F0F8019581907F31F4FB2CB0CF95
:101220009F7011F08823D1F3805E8830B8F3C80135
:101230000E941806BA2CF2CFEE2009F4A1CF8091BB
:101240001902816080931902F12C9ACFD21205C045
:101250009C1103C0EE2009F487C0C8010E94C60398
:10126000882319F1EE2009F180911902803270F083
:10127000209114023091150238872F8319869B869E
:101280008A868C87CE0107960E94180686E0F801B0
:10129000A4E1B2E001900D928A95E1F70E94140852
:1012A0000E94E507FF24F3946BCFC8010E94180643
:1012B000F9CF311112C0782D998A888AA6016E2D36
:1012C00089890E94420684E192E00E94180686E025
:1012D000F50111928A95E9F775CFD2120FC09C11D2
:1012E0000DC0E1100BC015968C93C8010E94180622
:1012F00086E0F50111928A95E9F742CFC8010E9474
:10130000C603882391F2EE2081F280911902803287
:1013100008F4BCCF20911402309115023A8329833E
:101320001B829D828C828E83CE010196ADCFE13EE1
:10133000F10508F040C0FE2CEE2009F4B6CFD21221
:101340002CC09C112AC08091190280FD1DC0982FCD
:10135000907FD1F015968C931597903F39F0982F88
:10136000907F905F8F70892B15968C93C8010E9497
:10137000180686E0F801A4E1B2E001900D928A958A
:10138000E1F70E94E507FCCE86E0F801A4E1B2E0B7
:1013900001900D928A95E1F7F3CEC8010E94C60331
:1013A000811174CF80911902816080931902C80164
:1013B0000E941806E5CE782D998A888AA6016E2D9E
:1013C00089890E94420686E0F50111928A95E9F723
:1013D000D8CFEE2009F469CFC8010E94C603F82EC9
:1013E000882309F462CF86E0F801A4E1B2E001901D
:1013F0000D928A95E1F784E192E00E94D1020E9469
:101400001408BFCF81E08E25E9CE81E08E25C6CEBF
:10141000ACE0B0E0EEE0FAE00C9486224F8358870F
:1014200069877A878B879C87CE0107960E94690817
:10143000882369F08A859B85892B39F04F815885EF
:10144000842F85238F3F09F06BC016E05FC086E0D4
:10145000FE013796DE01119601900D928A95E1F713
:101460008A859B85892B89F38F81988589238F3F76
:1014700061F32091E30130E0C9010196877099275B
:101480004091E2014817190671F40E94A6031092D8
:10149000E3011092E20186E0E4E1F2E0DF011D9257
:1014A0008A95E9F7D2CF96E0929FD001939FB00D35
:1014B0001124AC51BE4FFE01319601900D929A95C8
:1014C000E1F78093E3010E94C407BFCF819FC00171
:1014D00011248C519E4F0E9469088823E9F0E09105
:1014E000E2011E9FF0011124EC51FE4F4081518119
:1014F00062817381848195810E944C068091E20112
:1015000090E00196877099278093E2018091E20133
:101510009091E3018913DACF2C96E3E00C94A22298
:1015200069857A858B859C850E944C068ECF682FB5
:1015300080910001909101010E945C1A0895682F2A
:1015400080910001909101010E946A1A0895809192
:101550000001909101010E94781A089580913A0249
:10156000859585958595089580913A0287700895AF
:1015700090913A02977081E009F480E0089580919B
:101580005D02089590915D02892B80935D0208951C
:10159000809590915D02982390935D02089510923A
:1015A0005D02089590915C02892B80935C020895FE
:1015B000809590915C02982390935C02089510921C
:1015C0005C02089580913B02089508950E94E50A07
:1015D00008959091D30292FF08C090913B02981712
:1015E00021F080933B020E94E60A089580913B021D
:1015F000882329F010923B0280E00E94E60A0895B9
:10160000CF93DF93E0910001F091010180915D02A1
:101610008083E0910001F0910101808190915C0252
:10162000892B808390913B02992381F0E091000106
:10163000F09101018081892B80838091000190913C
:1016400001010E94C81981110E94F60AC09100018F
:10165000D091010140E250E06AE172E0CE010E94C7
:10166000C222892B59F080E2FE01AAE1B2E001908A
:101670000D928A95E1F7CE010E945619DF91CF9124
:10168000089508950E94410B08959091D30292FF0E
:1016900011C098E0899F90011124622B60933A0257
:1016A0000E949E0680913A028595859585950E94B7
:1016B000420B08950E949E06089510923A0280E01F
:1016C0000E94420B089590913A028095892380935D
:1016D0003A02282F277091F4282F082E000C330B84
:1016E0009217130659F09091D30292FF07C0859587
:1016F000859585950E94AE060E945D0B0895909198
:10170000D30292FB222720F9281769F080FB92F977
:101710009093D3028091D2029091D3020E94C70B82
:1017200082E00E94630B08958091D30282FB882798
:1017300080F991E089270E947F0B089581E00E9443
:101740007F0B089580E00E947F0B08956FEF7FEF7D
:1017500090E080E00E940423089590E080E00E94E1
:10176000E02221E0873E9E4F09F020E0822F08957D
:1017700082E090E00E94D822089583E090E00E94E9
:10178000D822089584E090E00E94E0220895BC01F0
:1017900084E090E00E9404230895AB01BC018FE037
:1017A00090E00E94F8220895AB01BC0183E190E033
:1017B0000E94F822089560E070E0CB010E94D40BF3
:1017C000089560E070E0CB010E94CD0B0E94DB0B1E
:1017D000089567EE7EEF90E080E00E94042360E0D1
:1017E00082E090E00E94E62260E083E090E00E94C8
:1017F000E6221092E1011092E00160E074E184E0E1
:1018000090E00E94042360E086E090E00E94E622DF
:101810006FEF87E090E00E94E62240E050E0BA01DE
:1018200088E090E00E94F82260E08DE090E00E9465
:10183000E62240E050E0BA0188E190E00E94F82200
:1018400060E087E190E00E94E62240E050E0BA01CB
:101850008CE190E00E94F82270E060E080E290E08D
:101860000E94042340E050E0BA0188E190E00E9429
:10187000F8220E94E10B08950E94E90B0895682F59
:101880008EE090E00E94E62208950E94451B60933E
:101890006C0270936D0280936E0290936F0260935E
:1018A00068027093690280936A0290936B020895B4
:1018B000089508950E94590C089508950E945D0CA2
:1018C00008958FE29FE00E9438190E94580C0E94F0
:1018D0005A0C08950E9419110895089508950E94C0
:1018E0006D0C0E946E0C08950E945B0F0E945B02BB
:1018F00008950E94301B0E94EF0E0E9434110E9436
:1019000049100E94740C0E94B6150E943E110E945C
:101910005E0C0895AAE0B0E0E0E9FCE00C947F22C0
:101920000E949D1080E6A82E82E0B82E750110E07E
:10193000F70101917F01812F0E94810F1F5F1830F5
:1019400009F440C00817A1F38091700281FD0E9444
:10195000870F0E946A0CC82E10E0812F0E94810F11
:10196000082FF50181915F01081731F1D02ED8269B
:10197000F12CEE24E3948D2D8E21B1F0CC20A1F03A
:10198000FE821F8391E0802F8E2109F490E09887DA
:101990000E94391B8160782F9A8789874E815F81E9
:1019A00068858A850E948902F394EE0CF5E0FF12A7
:1019B000E2CFF501319700831F5F183071F60E9466
:1019C000450C20C00813C0CF0E94391B8C018091A8
:1019D0005E0290915F0208171907A1F08FEF8983CB
:1019E0008A831B820E94391B8160782F9D838C83A0
:1019F00049815A816B818D810E94890210935F0217
:101A000000935E020E9419110E94BA140E946E0295
:101A10002A96EAE00C949B22CF93DF930E940A0E51
:101A2000EC01811520E59207D0F5811530E493078C
:101A300008F086C0803E910518F58D3C910508F0B0
:101A40007DC0883A910570F4853A910508F06EC022
:101A50008130910501F10097F1F00497E0F4D0E0B6
:101A6000C0E019C0813C9105D0F7C85AD0E0CC0F36
:101A7000DD1FC757DE4F0990D881C02DD4640BC03D
:101A80008115904208F0A8C0C11581E0D80718F46C
:101A9000C83ED10520F7CE01DF91CF910895803661
:101AA00022E5920710F5803432E5930708F052C022
:101AB0008032924508F047C0C11582E5D80708F486
:101AC0007DC02C2F2695269540E2249F900111245D
:101AD0008C2F8370C1E0D0E002C0CC0FDD1F8A954F
:101AE000E2F7C22BD32BDD68D6CF803A22E59207EE
:101AF00060F4803832E5930708F441C0CF71D0E03C
:101B0000DC2FCC27C46FD06AC6CF803C42E5940757
:101B100008F449C0C03E82E5D80708F0A0CFDC2F0A
:101B2000CC27CC27DF71C06FD06AB5CFC55AD0E0C3
:101B3000C554DE4FC881D0E0D064ADCFD065ABCF07
:101B4000DF70D06AA8CFCF71D0E0DC2FCC27C16F77
:101B5000D06AA1CF282F26952695277080E2289F4E
:101B6000900111248C2F8370C1E0D0E002C0CC0F13
:101B7000DD1F8A95E2F7C22BD32BDC688CCF282F90
:101B800026952695277040E2249F900111248370AA
:101B9000C1E0D0E002C0CC0FDD1F8A95E2F7C22B76
:101BA000D32BDA6878CF8F710E94AC0EC82FD0E0AB
:101BB000DC2FCC27CC27DF71D0626DCF8C2F8F71BB
:101BC0000E94AC0E35E0D695C7953A95E1F7CF70F7
:101BD0009C2FEC01D0695FCF8D2F8F710E94AC0ECE
:101BE00090E0982F882788279F719C012C2BE90172
:101BF000E3CF462F783030F4653020F4672F0E9411
:101C00007401089590E080E008950E94F90D0E940B
:101C10000C0D089582389105B9F1B0F48133910526
:101C200009F47DC048F48932910509F46DC08A3207
:101C3000910509F47BC008958533910509F45FC0CF
:101C40008933910509F10895833E9105D9F138F45E
:101C5000803E910529F1823E910579F10895863EF5
:101C60009105D9F1873E910509F43EC0843E910566
:101C700041F52091D30221FF24C08091D20284FD3E
:101C800019C087EE90E008952091D202237009F0E8
:101C90005AC02091D30223FF14C089E290E0089536
:101CA0002091D20220FD38C03091D30230FF09C00C
:101CB00024FF43C090E080E008952091D20222FDED
:101CC000F7CF08952091D20222FD3AC03091D3027D
:101CD00030FD39C024FFF5CFEDCF2091D20223FF94
:101CE000F0CF24FDE7CFCDCF2091D20223FD2EC02F
:101CF0003091D30231FFEECF84EE90E00895209131
:101D0000D20225FFDECFC9CF2091D20225FD21C00E
:101D10002091D30223FFD5CF89E390E0D2CF209149
:101D2000D20226FFCECF8AE290E008952091D2021F
:101D300026FFC7CF81E390E0089583EE90E00895F9
:101D400082EE90E0089580EE90E0089586EE90E0B7
:101D5000089585E390E008959091D20292FF06C025
:101D6000282F28712830F9F4877F846093FF06C0FC
:101D7000282F28712831F1F4877E84612091D302C5
:101D800020FF06C0382F38713830D9F4877F816042
:101D900021FF06C0282F28712831D1F4877E816168
:101DA00094FD877E0895282F24712430F9F68B7FC7
:101DB0008860DCCF282F2471243101F78B7E886165
:101DC000DDCF382F3171313019F78E7F8860E0CF49
:101DD000282F2171213121F78E7E8861E1CF109269
:101DE000CE021092CF021092D0021092D10208952A
:101DF000CF92DF92EF92FF926B017C010E9419114A
:101E000081110EC00E94451BC61AD70AE80AF90ABA
:101E1000C092CE02D092CF02E092D002F092D102D4
:101E2000FF90EF90DF90CF9008950F931F930E9443
:101E30001911882329F00E94451B1F910F910895C5
:101E40000E94451B0091CE021091CF022091D0023A
:101E50003091D102600F711F821F931FEECF80E07F
:101E600008950E94A60B0895CF930E949D102FEF16
:101E700086E791E0215080409040E1F700C00000EB
:101E80000E949D100E943111C5E08111C0E080E0E8
:101E90000E94810F90E002C095958795CA95E2F760
:101EA00080FF04C00E94310F0E94A01BCF910895B3
:101EB0000E94340F08950E94AD0B811102C00E9450
:101EC0003C0C0E94B80B809370020E94C20B90934E
:101ED000D3028093D2020E94580F0E94BD0B90E063
:101EE0000E9462068091DE019091DF010E948306CC
:101EF000089508950E94790F089508950E947D0F16
:101F00000895E82FF0E0E352FD4F80810895089591
:101F100008950E94880F0895EF92FF921F93CF9328
:101F2000DF9300D000D0CDB7DEB70E941911182F73
:101F30006091E502882309F447C019821A821B8246
:101F40001C82862F90E09E012F5F3F4F7901B901DF
:101F500083529D4F0E944C118823E9F08091D40256
:101F600090E044E050E0B70183529D4F0E94C222AE
:101F700021E020937102892BC9F410E00E94C9016D
:101F8000812F0F900F900F900F90DF91CF911F91A5
:101F9000FF90EF90089580917102882371F384E09F
:101FA000F70111928A95E9F710927102E091D4023B
:101FB000F0E0E352FD4F89819A81AB81BC8180833F
:101FC0009183A283B383DACF70E063527D4F809117
:101FD000D40290E083529D4F0E94D3110E94890F3A
:101FE000CFCF1F93CF93DF9322E031E0C1E0D0E069
:101FF000D90150E040E08D918F3F91F0E82FE295BC
:10200000EF70F0E011A18F70BE0101C0660F8A95DC
:10201000EAF7962F9095912391A382A1862B82A314
:102020004F5F5F4F4530510531F72B5F3F4F81E0E8
:1020300026313807E9F6DF91CF911F910895CF93AC
:10204000DF93AC01A62FB0E085E0689FF00111247A
:10205000EE5FFE4F75E081E060E091919F3F81F07F
:10206000C92FC295CF70D0E028A130E09F7002C088
:10207000359527959A95E2F7982F20FD90E0692BEA
:10208000880F715051F7A40FB51F6C93DF91CF915A
:102090000895A4E1B0E0EFE4F0E10C948722809190
:1020A0001601811126C084E1E0E4F1E0DE01119621
:1020B00001900D928A95E1F7FE013196A2E0B1E020
:1020C000CE01459620812C93218111962C93119756
:1020D000228112962C931297238113962C93139797
:1020E000248114962C931497359615968E179F0776
:1020F00049F78091160194E0811190E09093E502F8
:1021000084E0891B8093D4020E94F10F88E0EDEDFA
:10211000F2E0DF01982F1D929A95E9F7E5EDF2E0E4
:10212000DF011D928A95E9F784E00E94DB100E948E
:10213000C6016496E2E00C94A322A8E0B0E0E3EAD2
:10214000F0E10C9484228E010F5F1F4F88E0F801AC
:1021500011928A95E9F7F12C6F2DC8010E941F108A
:10216000F394F4E0FF12F8CF48E050E0B80185EDB9
:1021700092E00E94C22221E0009709F420E0892B1E
:1021800041F088E0F801A5EDB2E001900D928A954A
:10219000E1F76091E50270E063527D4F44E085ED28
:1021A00092E00E94DC10182F0E948C0F812B289641
:1021B000E5E00C94A0220895CF92DF92EF92FF9277
:1021C0000F931F93CF936C017B01042F222349F0BF
:1021D00081E0809374020E94391B90937302809374
:1021E0007202C0917402C1110AC0C0E08C2FCF915D
:1021F0001F910F91FF90EF90DF90CF900895809105
:102200007202909173020E94511B059770F310E0C7
:10221000A801B601C7010E94C222892B41F0A80182
:10222000B601C7010E94CF2210927402DFCFC0E036
:10223000FBCF80917702811107C00E945022882332
:1022400051F081E08093770281E0909177029130A4
:1022500009F080E0089582E0809377020E944B228B
:10226000F3CF0E94191108950E9431118093160135
:102270000E94191181110E94821108950E94191162
:10228000811102C00E948511089581E09091780229
:102290009A3008F080E008950F931F93CF93DF9357
:1022A000EC018B01809178028A30B8F4B801CE013C
:1022B0000E94D011C82F811122C0809178028F3FD7
:1022C000B9F40E94391B90937602809375028C2F8B
:1022D000DF91CF911F910F91089580917502909198
:1022E00076020E94511B843F914000F7C0E0EFCF7F
:1022F0008F5F809378028A3020F7C1E0E8CF109298
:102300007802E5CF0E94D61708950E94D917089544
:10231000B0E0A0E0EEE8F1E10C9482227901C82F50
:10232000880FDD0B41155105A9F0FE0193E0EE0F7A
:10233000FF1F9A95E1F7E95EFE4F818192818758F0
:102340009D4F208130E04217530708F49A01A901FC
:102350000E94CF22CE010E94C218D82E8823D1F02D
:1023600001151105B9F083E0CC0FDD1F8A95E1F767
:10237000FE01E95EFE4F438150E00417150708F4A3
:10238000A801C95EDE4F6C817D8167587D4FC70112
:102390000E94CF228D2DCDB7DEB7E7E00C949E22B0
:1023A0000E94CA1208950E94E1120895A4E0B0E0CC
:1023B000ECEDF1E10C94852260918E0270918F0218
:1023C00080919002909191020E94601B11E064360E
:1023D00071058105910518F10E94150F6E5F7F4F01
:1023E0008F4F9F4F69837A838B839C8310E000E03B
:1023F00030E020E044E050E0BE016F5F7F4F82E0BC
:102400000E948811182F882351F00E94451B609369
:102410008E0270938F028093900290939102812F8D
:102420002496E4E00C94A122B0E0A0E0EAE1F2E11D
:102430000C947F227C015B016A010E94451101E03E
:1024400010E0882311F00AE010E0C1E0D0E0B5010F
:10245000C701F6010995811104C021960C171D07CB
:102460002CF4CDB7DEB7EAE00C949B22CC9F900110
:10247000CD9F300D300D112490E080E045E34A956A
:10248000F1F70000019682179307C1F7E0CFA5E0AE
:10249000B0E0EDE4F2E10C947F225B01E090BE013C
:1024A000F090BF0101E010E09E012B5F3F4F50E034
:1024B00040E070E060E080E00E948811182F8823DF
:1024C00009F44BC067018FEFC81AD80A60918A02DD
:1024D00070918B0280918C0290918D020E94601B02
:1024E000643671058105910580F104E010E09E01DC
:1024F0002F5F3F4F50E040E070E060E081E00E94DD
:102500008811F82E64E070E0C6010E94B71511E052
:102510009D81981310E01F2159F10E94451B609383
:102520008A0270938B0280938C0290938D02898132
:102530009A81AB81BC818093860290938702A0939D
:102540008802B093890211E013C064E070E0C60114
:102550000E94B7159D818913C8CFF70181819281AF
:10256000A381B48189839A83AB83BC831111DFCFAC
:102570008091860290918702A0918802B091890291
:10258000F50180839183A283B383812F2596EAE0AE
:102590000C949B220F931F93CF93DF93EC018B013D
:1025A00047E452E10E941412882331F046ED51E1D4
:1025B000B801CE010E941412DF91CF911F910F91AB
:1025C00008950F931F93CF93DF93C091BE01D091D5
:1025D000BF01CE01019624E0FB01DC0101900D92C8
:1025E0002A95E1F764E070E00E94B71588836D8159
:1025F0007E818F81988500918202109183022091C3
:10260000840230918502601771078207930751F0A9
:102610006093820270938302809384029093850278
:102620000E94F80EDF91CF911F910F9108950E94A3
:10263000261D0E94790C0E94331D08950E94381DAA
:102640000E948A0C0E94521D08950E94D21A0E9474
:102650000C1D0E94610C0E9417130E941E130E9401
:102660006F0CFBCF8091980280FF0DC06091340108
:1026700070E0660F771F6038710570F561157105A0
:1026800069F1862F089581FF07C06091340184E0CD
:10269000689FB0011124EFCF6091340182FD0AC020
:1026A000809197028823A9F0209133016091340131
:1026B000821710F088E0ECCF869FC001112433E030
:1026C000880F991F3A95E1F7622F70E00E945D2212
:1026D000D2CF68E070E0D5CF8FE7089581E008950C
:1026E0008091980280FF0CC06091300170E0759578
:1026F0006795759567956115710549F1862F089560
:1027000081FF06C06091300170E075956795F3CF49
:102710006091300182FD0BC0909196029923A1F047
:1027200060912F0180913001961738F0682F70E08A
:102730006038710500F38FE70895899FC001112467
:1027400070E00E945D22F4CF61E070E0D7CF81E0BD
:1027500008958D3C31F40E943213819580939C0240
:1027600008958E3C19F40E943213F8CF8F3C31F457
:102770000E943213819580939B020895803D19F445
:102780000E943213F8CF893D29F40E947013809380
:102790009D0208958A3D21F40E9470138195F7CF20
:1027A0008B3D31F40E947013819580939E020895B1
:1027B0008C3D19F40E947013F8CF9FE2980F983067
:1027C00070F4815D990B21E030E001C0220F8A9501
:1027D000EAF780919A02822B80939A0208958D3DA8
:1027E00031F48091980281608093980208958E3D23
:1027F00021F4809198028260F7CF8F3DB9F78091E4
:1028000098028460F1CF40919B028D3C59F48091F5
:102810009C0287FF0DC010929C0241110BC01092C8
:10282000970208C08E3C81F480919C0218169CF39C
:10283000442381F080919D0290919E02892B09F0A2
:102840005AC01092960208958F3C49F447FFF0CF8A
:1028500010929B0280919C028111ECCFE0CF803DD1
:1028600019F41416ACF3E4CF90919D02893D29F43C
:102870001916F4F610929D02DBCF8A3D19F497FFEA
:10288000D7CFF8CF90919E028B3D29F497FFD0CF00
:1028900010929E02CDCF8C3D19F41916CCF3C8CFFF
:1028A0009FE2980F983090F4815D990B21E030E021
:1028B000B90102C0660F771F8A95E2F7CB018095B8
:1028C00090919A02892380939A02B2CF8D3D31F480
:1028D000809198028E7F80939802AACF8E3D21F43A
:1028E000809198028D7FF7CF8F3D09F0A1CF809125
:1028F00098028B7FF0CF08950E94391B9C01909124
:102900009B0280919C02982B21F03093950220939A
:10291000940290919D0280919E02982B21F0309319
:1029200093022093920289E992E00E94701908951F
:1029300086E0E9E9F2E0DF011D928A95E9F710925D
:10294000970210929602109298020895FC018281DB
:1029500081110EC0838181110BC08481811108C057
:1029600091E08581811101C090E0892F81700895E7
:1029700081E0FCCFA6E0B0E0E0ECF4E10C9486222C
:1029800086E0E9E9F2E0DE01119601900D928A9568
:10299000E1F710929B0210929C0210929D021092FD
:1029A0009E028B819C81892B89F080919402909169
:1029B00095020E94511BAC01909197029923C9F195
:1029C000809135018417150608F440C08D819E81E1
:1029D000892B91F080919202909193020E94511B59
:1029E000AC0190919602992309F471C08091310154
:1029F0008417150608F479C0BE016F5F7F4F89E91F
:102A000092E00E948A1A811105C089E992E00E9431
:102A1000A61481110E947C1486E0FE013196A9E97A
:102A2000B2E001900D928A95E1F72696E3E00C94CE
:102A3000A222209136018AE0289F900111242417B8
:102A4000350720F69F5F9093970202C09F3FD1F712
:102A50001B81112359F00E9432139FEF11160CF4C1
:102A600091E0899F802D112480939B021C8111236A
:102A700059F00E9432139FEF11160CF491E0899FD8
:102A8000802D112480939C0230919B02332309F402
:102A90009DCF20919C02222309F498CF45EB34036B
:102AA000C0011124992359F090939B0245EB240314
:102AB00090011124332339F030939C0287CF81E0B9
:102AC00080939B02F3CF81E080939C027FCF209183
:102AD00032018AE0289F900111242417350708F05D
:102AE0008BCF9F5F9093960202C09F3FD1F71D81CD
:102AF000112359F00E9470139FEF11160CF491E00E
:102B0000899F802D112480939D021E81112359F0ED
:102B10000E9470139FEF11160CF491E0899F802D95
:102B2000112480939E0230919D02332309F464CFD7
:102B300020919E02222309F45FCF45EB3403C001AC
:102B40001124992359F090939D0245EB24039001A1
:102B50001124332339F030939E024ECF81E08093CD
:102B60009D02F3CF81E080939E0246CF0895FC0141
:102B7000680F791F8FEF91E36E177F0709F40895AF
:102B80002191822728E030E087FF06C0880F89273F
:102B900021503109C9F7F0CF880FFACFCF93DF93D7
:102BA000EC01FB018281882309F4D2C09E013057D9
:102BB0002332310508F0B2C00E94C20B9093D302B9
:102BC0008093D202FE01E150F047E232F10520F499
:102BD000E85DFC4D0C9471228091D202816080935B
:102BE000D20293C08091D30288608093D3028DC0BB
:102BF0008091D2028260F3CF8091D2028460EFCFC5
:102C00008091D2028860EBCF8091D3028160EDCFBA
:102C10008091D3028260E9CF8091D2028061DFCFC0
:102C20008091D2028062DBCF8091D2028064D7CFC4
:102C30000E94A6038091D2028068D1CF8091D202F7
:102C40008C60CDCF8091D3028360CFCF8091D202B0
:102C50008E7FC5CF8091D302877FC7CF8091D2026C
:102C60008D7FBDCF8091D2028B7FB9CF8091D20270
:102C7000877FB5CF8091D3028E7FB7CF8091D3026B
:102C80008D7FB3CF8091D2028F7EA9CF8091D20267
:102C90008F7DA5CF8091D2028F7BA1CF0E94A6030A
:102CA0008091D2028F779BCF8091D202837F97CF82
:102CB0008091D3028C7F99CF8091D20282FB992799
:102CC00090F921E0922790FB82F990FB83F987CF5E
:102CD0008091D302982F909591708E7F892B90FBD5
:102CE00081F983CF9091D202892F8F7B96FF8064E8
:102CF00076CF0E94A6039091D202892F97FB87F985
:102D000080586DCF81E00E943F0C8091D20290915B
:102D1000D3020E94C70B0E94A60380E0DF91CF91EF
:102D2000089580E0F0CF9091D202892F8F7E94FF9A
:102D3000806155CF9091D202892F8E7F90FF816064
:102D40004ECF9091D302892F877F93FF88604DCF1C
:102D500081E0E4CFCF93DF93EB0186319C4711F5FF
:102D60000E94BF0A9A81992399F08A7A91E009F426
:102D700090E090939F02811109C089E20E94970A16
:102D80000E94000B80E0DF91CF91089585E3F6CF9C
:102D900080919F02811104C089E20E949F0AF0CFB6
:102DA00085E3FBCF81E0EFCF0F931F93CF93DF93AA
:102DB000C42FD22FFC0182818823C9F04093A20244
:102DC0000E94391B9093A1028093A00280E28C0F95
:102DD000883040F4C77081E001C0880FCA95EAF7D7
:102DE0000E948203DF91CF911F910F91089510915E
:102DF000A202141332C08091A0029091A1020E94FD
:102E0000511B813E910548F5C0E2CD0F1D17B9F069
:102E100080E2810F883040F4177081E001C0880F94
:102E20001A95EAF70E948903C83048F481E09D2F83
:102E3000977001C0880F9A95EAF70E948203802F4D
:102E40000E947903C83070F6D77081E001C0880F06
:102E5000DA95EAF70E948903C5CF80E28C0F8830AB
:102E600008F6C77081E001C0880FCA95EAF7F2CF73
:102E70000F93DB0188519C4787309105A0F5FC0139
:102E8000E65BFC4D0C94712206E221EE41EE6AE114
:102E90007CE7CD010E94D41680E00F91089507E2EF
:102EA00025EE45EE6BE17CE7F4CF06E221EE40EE45
:102EB00068E17CE7EECF07E225EE44EE69E17CE7CE
:102EC000E8CF06E221EE42EE6CE17CE7E2CF07E2DA
:102ED00025EE46EE6DE17CE7DCCF08E221E045EE31
:102EE0006EE17CE7D6CF12968C91882319F0109270
:102EF000A202D3CF81E0D1CF8EE14A9B02C08150A4
:102F0000E1F74A9BFECF08955A9880E28A95F1F73F
:102F10005A9A0895FC013BE03A95F1F798E020E0D9
:102F200080E031E040E14A95F1F7880F4A9B02C00A
:102F30008160232742E04A95F1F7000040E14A957D
:102F4000F1F7915079F790E19A95F1F799B132E064
:102F50003A95F1F7000040E14A95F1F792FB992785
:102F600090F992272081920F90830895A1E0B0E01C
:102F7000ECEBF7E10C94832219828C017C01E60EC4
:102F8000F11C0E151F0541F481E09981911180E03B
:102F90002196E6E00C949F220E947C17CE010196B8
:102FA0000E948A17F80181938F01EBCF529A5A9AA7
:102FB000089552985A9AEA9AE9E6F0E080818F7C67
:102FC000808308956150770B91E001C0990F6A9555
:102FD000EAF720E031E0911108C0222391F05A9ADB
:102FE00080E28A95F1F75A980895492F482339F0DD
:102FF0005A9A232740E24A95F1F79695ECCF5A98D2
:10300000F9CF5A98EDCFFF920F931F93CF93DF9391
:10301000EC018C01060F111DC017D10729F4CDB7A3
:10302000DEB7E5E00C94A022F9900E94841768E0D6
:103030008F2D0E94E217F0CF1F920F920FB60F92C2
:1030400011240F931F932F933F934F935F936F938D
:103050007F938F939F93AF93BF93EF93FF93CF9300
:10306000DF930F92CDB7DEB719820E947C17CE0195
:1030700001960E948A17082F069506950695282F17
:1030800022952570902F9570290F922F9370269579
:103090002695920F982797708981982B09F05CC02C
:1030A000043008F059C080E18A95F1F75A9A529A93
:1030B00082E08A95F1F700C05A9888E0089F800165
:1030C0001124D801A95EBE4F1696ED91FC91179779
:1030D0003097A9F06091BE017091BF0114962D91B7
:1030E0003C911597260F371F11968D919C91129741
:1030F000680F791F13964C9113978C910995F801DD
:10310000E95EFE4F6381662351F02091BE0130914C
:10311000BF0184819581820F931F0E9403180E9432
:10312000841780E18A95F1F75A9852985A9A80E16B
:103130008A95F1F7F801E95EFE4F6081662351F050
:103140002091BE013091BF0181819281820F931F36
:103150000E94B6170E947C170F90DF91CF91FF91CC
:10316000EF91BF91AF919F918F917F916F915F91FF
:103170004F913F912F911F910F910F900FBE0F9084
:103180001F9018950F931F93CF93DF93EC01049733
:103190000CF04CC0F894529A5A9885E08A95F1F751
:1031A00000009C2F969595708C2F8570980F892F15
:1031B00083709695969523E0CC0FDD1F2A95E1F755
:1031C000980F8E01092B0E94841700C068E0802FA1
:1031D0000E94E21780E18A95F1F752985A9A4A9B29
:1031E0001EC087E090E04A991CC0FE01E95EFE4FD8
:1031F00063816623F9F02091BE013091BF01848183
:103200009581820F931F0E94B617811113C0529AA5
:103210005A9A7894DF91CF911F910F91089500C031
:10322000DECF019729F4529A5A9A789480E0F2CF2F
:1032300000C0D9CF0E947C1780E28A95F1F75A9896
:10324000529A80E18A95F1F7C95EDE4F6881662364
:1032500051F02091BE013091BF0189819A81820F86
:10326000931F0E9403180E948417789481E0D2CFA4
:103270009093C1018093C00108959093A902809317
:10328000A80208950E941911811103C08091A30220
:103290000895E091A802F091A902309729F00190D9
:1032A000F081E02D0995089580E00895E091A8024D
:1032B000F091A902309799F020913F01222359F013
:1032C0002091D20227FF07C0DC012C9111962C938C
:1032D000119726E02C930280F381E02D0995089543
:1032E000E091A802F091A902309739F022E0DC01C8
:1032F0002C930480F581E02D09950895A3E0B0E0BA
:10330000E4E8F9E10C9487222091A6023091A7020B
:1033100028173907A1F09093A7028093A602E091A5
:10332000A802F091A902309751F023E029839B83F2
:103330008A830680F781E02DCE01019609952396B8
:10334000E2E00C94A322A3E0B0E0E9EAF9E10C94F6
:1033500087222091A4023091A50228173907A1F0F5
:103360009093A5028093A402E091A802F091A90293
:10337000309751F024E029839B838A830680F7816C
:10338000E02DCE01019609952396E2E00C94A3224C
:10339000FC01329680913F01882321F08091D20276
:1033A0009EE187FF96E080E0915008F40895219116
:1033B0002223D1F38F5FF8CF662301F120913F01E3
:1033C0002223F1F02091D20227FF1AC0462F469502
:1033D000469546954E3190F4677021E030E002C08A
:1033E000220F331F6A95E2F7840F911DFC01828141
:1033F00090E02823392381E0232B69F480E00895AD
:10340000FC01329608962191261721F0E817F9075A
:10341000D1F7F4CF81E008959C01FC0132969FEF33
:1034200080E04191461751F09F3F19F4411101C0CE
:10343000982F8F5F8630A9F79F3F09F40895290FD1
:10344000311D97FD3A95F90162830895FC0132968A
:1034500008962191261303C0DF0111971C92E817EB
:10346000F907B9F70895E62FE695E695E695EE316A
:1034700068F4E80FF92FF11D677021E030E001C01A
:10348000220F6A95EAF78281822B82830895E62FC4
:10349000E695E695E695EE3170F4E80FF92FF11D0B
:1034A000677021E030E001C0220F6A95EAF72095AD
:1034B000828128232283089520913F01222339F01D
:1034C0002091D20227FF03C00E94331A08950E9460
:1034D0000C1A089520913F01222339F02091D20245
:1034E00027FF03C00E94471A08950E94261A0895D4
:1034F000FC01329680913F01882351F08091D202E5
:1035000087FF06C08EE1DF011D928A95E9F70895D5
:1035100086E0F9CF46E050E00E94C22221E0892BEC
:1035200009F420E0822F089508950E94941A0895C6
:10353000811106C081E08093AA020E94951A089525
:1035400082E0F9CF83E08093AA020E94951A089541
:103550000E94981A089581E08093AA020E94951A09
:1035600008950E94AB1A0895089508950E94B51A0F
:103570000895089508950E94B41A0895CF930E9463
:10358000B91A0E949D100E94BA1AC0E08C2F0E94A6
:10359000810F811105C0CF5FC830C1F7CF91089569
:1035A00081E0FCCF85B7806885BF85B7806885BF1F
:1035B00008951F921FB61F9211248F939F93AF936C
:1035C000BF938091AB02811113C08091E60290916C
:1035D000E702A091E802B091E9024196A11DB11D58
:1035E0008093E6029093E702A093E802B093E90289
:1035F000BF91AF919F918F911F901FBE1F90189503
:103600008091EE02843031F10E943B021092AB02B5
:1036100088E190E020E40FB6F894A89580936000CC
:103620000FBE2093600083B7817F846083BF83B720
:10363000816083BF7894889583B78E7F83BF0FB6F0
:10364000F894A89580916000886180936000109242
:1036500060000FBE08950E94A6030E9440020895D4
:1036600082E084BD93E095BD9AEF97BD80936E0094
:1036700008952FB7F8948091E6029091E702A09107
:10368000E802B091E9022FBF08952FB7F894609136
:10369000E6027091E7028091E8029091E9022FBF63
:1036A00008959C014FB7F8948091E6029091E7024B
:1036B000A091E802B091E9024FBF821B930B0895DD
:1036C000CF92DF92EF92FF922FB7F894C090E6026C
:1036D000D090E702E090E802F090E9022FBFA70146
:1036E0009601261B370B480B590BCA01B901FF90F5
:1036F000EF90DF90CF90089578941F921FB61F929D
:1037000011248F939F93AF93BF938091E602909182
:10371000E702A091E802B091E9020196A11DB11D56
:103720008093E6029093E702A093E802B093E90247
:10373000BF91AF919F918F911F901FBE1F901895C1
:1037400087E797E7909301088093000888E19AE063
:103750000FB6F894A895809360000FBE9093600018
:10376000FFCF88E19AE00FB6F894A89580936000A7
:103770000FBE90936000FFCF8091CC0208959B0113
:10378000BA019091EE029430E9F48F708093E900D1
:103790009FEF8091E800915085FD06C085ED8A95E8
:1037A000F1F700009111F5CF8091E80085FF0AC084
:1037B00050E040E0C9010E94C41D8091E8008E776E
:1037C0008093E800089543E050E0BC0182E00E944D
:1037D000BF1B089546E050E0BC0182E00E94BF1B81
:1037E0000895CF93DF93EC0180913F01811111C0C7
:1037F00048E050E0BE0181E00E94BF1B80E2FE0174
:10380000ACEAB2E001900D928A95E1F7DF91CF9199
:1038100008958091D20287FF05C040E282E050E027
:10382000BE01EACF48E081E0FACF8091ED0281113C
:1038300009C00E94541F0E94B11F8091E200846061
:103840008093E20008951092ED0208950E94AB1A51
:1038500008956091EA0281E0611101C080E00E9458
:10386000A21A08959091EE0281E0943009F080E070
:103870006091EA020E94A81A089542E061EC81E09A
:103880000E94D01E42E261EC82E00E94D01E909124
:10389000EE0281E0943009F080E06091EA020E943B
:1038A000981A08958091F002833009F461C030F4D1
:1038B0008130D1F1823009F49EC008958A3009F434
:1038C0008AC08B3009F46FC0893009F050C08091F4
:1038D000EF02813209F04BC08091F3029091F40223
:1038E000029708F044C08091E800877F8093E80049
:1038F0008091E80082FF37C09091F3008091F20040
:10390000029731F48091F100813011F0863021F47A
:103910008091F1008093CC028091E8008B778093B6
:10392000E8000E94041F23C08091EF02813AF9F45D
:103930008091E800877F8093E8008091F302909166
:10394000F402892B61F460E28CEA92E070E00E945C
:10395000131E8091E8008B778093E800089560E063
:1039600090E080E0F3CF8091EE028111C1CF089505
:103970008091EF02813AD9F78091F3029091F4029D
:10398000892BA9F78091E800877F8093E8008091D8
:10399000E80080FFFCCF80913F018093F10080918F
:1039A000E8008E77BCCF8091EF02813201F78091E1
:1039B000F3029091F402892BD1F68091E800877F81
:1039C0008093E8000E94041F8091F10280933F01E0
:1039D0000E94A60308958091EF02813241F6809102
:1039E000E800877F8093E8000E94041F8091F20224
:1039F0008093CD0208958091EF02813A09F0B7CF0C
:103A00008091E800877F8093E8008091E80080FF44
:103A1000FCCF8091CD02C1CF84B7877F84BF0FB622
:103A2000F894A8958091600088618093600010925E
:103A300060000FBE80E890E00FB6F89480936100BC
:103A4000909361000FBE0E94B11A08950E94541F06
:103A50000E94B11FE2EEF0E0808184608083789460
:103A60000E943022089587E391E00E943D19089555
:103A70008091EE02853031F48091EE02853019F0AC
:103A80000E942B1B08950E94001B8091EC0288234A
:103A900099F30E94BE1A882379F30E94AE1D0E94FA
:103AA000A603EACF08950E94561D0895292F3327B3
:103AB0002330310519F168F42130310509F444C08F
:103AC0002230310509F445C090E080E030E020E08C
:103AD00025C02132310549F122323105A9F780E4B0
:103AE00090E02BE332E061157105C1F086EB90E0C8
:103AF00025E831E06130710589F0E6CF9927813002
:103B0000910581F0009729F00297F1F6ECEFF0E0D3
:103B100002C0E4E3F1E0849190E09F01FA01318377
:103B200020830895EEE0F1E0F6CF89E090E02AE40A
:103B300031E06115710591F389E090E023E631E011
:103B40006130710559F3C0CF82E190E023E731E0A5
:103B5000E5CF8BE390E028E331E0E0CF80E189BD61
:103B600082E189BD09B400FEFDCF8091D8008F7D30
:103B70008093D8008091E00082608093E000809183
:103B8000E00081FDFCCF0895AF92BF92CF92DF920B
:103B9000FF920F931F93CF93DF936C01EB018A0188
:103BA0000E94231FF82E811123C00115110539F041
:103BB000F80180819181C81BD90BC80ED91EB12C88
:103BC000A12C2097A9F08091E80085FD22C080916A
:103BD000E8008E778093E80001151105A1F0F80147
:103BE00080819181A80EB91EB182A08285E0F82E55
:103BF0008F2DDF91CF911F910F91FF90DF90CF908C
:103C0000BF90AF9008950E94231F8823D1F2F82E11
:103C1000EFCFF60181916F018093F1002197FFEFC3
:103C2000AF1ABF0ACECFFC018091F5029091F60247
:103C300086179707A0F06115710529F49091E800A7
:103C40009E779093E80090E06115710551F4911111
:103C500008C08091E80082FF34C080E00895BC0174
:103C6000F2CF8091EE028823C1F18530C1F18091BD
:103C7000E80083FD30C08091E80082FDEACF8091AA
:103C8000E80080FFE1CF8091F3002091F200382F0F
:103C90006115710519F02830310558F091E0283090
:103CA000310509F090E02091E8002E772093E8009C
:103CB000CBCF81918093F100615071092F5F3F4F0D
:103CC000E7CF8091EE02882341F0853041F080916A
:103CD000E80083FFBECF81E0089582E0089583E08D
:103CE0000895FC018091F5029091F60286179707DE
:103CF000A0F06115710529F48091E8008E7780931A
:103D0000E80090E06115710551F4911108C08091AF
:103D1000E80082FF35C080E00895BC01F2CF8091B9
:103D2000EE028823C9F18530C9F18091E80083FD56
:103D300031C08091E80082FDEACF8091E80080FFE9
:103D4000E1CF8091F3002091F200382F61157105C9
:103D500019F02830310558F091E02830310509F08C
:103D600090E08091E8008E778093E800CBCF84913B
:103D70008093F1003196615071092F5F3F4FE6CF7C
:103D80008091EE02882341F0853041F08091E80077
:103D900083FFBDCF81E0089582E0089583E0089518
:103DA000982F973028F08F708093E90081E0089574
:103DB0009093E900242F762F50E0981731F07091FE
:103DC000EC002091ED005091F00021FD02C09F5FBA
:103DD000E8CF3091EB003E7F3093EB003091ED0067
:103DE0003D7F3093ED003091EB0031603093EB007C
:103DF0007093EC002093ED005093F0002091EE00C2
:103E000027FDE5CF80E008958091EF0287FF13C082
:103E10008091E80082FF06C08091E8008B77809354
:103E2000E80004C08091EE028111F2CF08958091E4
:103E3000EE028823D9F38091E80080FFF8CF8091CB
:103E4000E8008E77ECCF2091E4003091E50095E614
:103E5000A9012091EC00822F817020FF06C0809183
:103E6000E80080FF06C080E008952091E80022FD70
:103E70001AC08091EE02882389F0853089F0809104
:103E8000EB0085FD0FC02091E4003091E500421762
:103E90005307F9F29150E1F684E0089582E0089525
:103EA00083E0089581E008950E94C31F0E94CB1F04
:103EB000E0EEF0E0808181608083E8EDF0E08081D9
:103EC0008F77808319BCA7EDB0E08C918E7F8C93A7
:103ED00080818F7E80831092ED0208950F931F934F
:103EE000CF93DF930E94C31F0E94CB1FC8EDD0E089
:103EF00088818F77888388818068888388818F7D97
:103F0000888319BC1092EE021092EA021092EC0221
:103F10001092EB0200EE10E0F80180818B7F80832D
:103F200088818160888342E060E080E00E94D01E4A
:103F3000E1EEF0E080818E7F8083E2EEF0E0808130
:103F400081608083808188608083F80180818E7F9A
:103F50008083888180618883DF91CF911F910F9149
:103F60000895E8EDF0E080818F7E8083E7EDF0E05A
:103F700080818160808384E082BF81E08093ED0254
:103F80000E946E1F0895E8EDF0E080818E7F8083AF
:103F90001092E20008951092DA001092E100089564
:103FA0001F920F920FB60F9211242F933F934F93AE
:103FB0005F936F937F938F939F93AF93BF93EF9391
:103FC000FF938091E10082FF0BC08091E20082FFAD
:103FD00007C08091E1008B7F8093E1000E942F2237
:103FE0008091DA0080FF19C08091D80080FF15C051
:103FF0008091DA008E7F8093DA008091D90080FF73
:1040000096C080E189BD82E189BD09B400FEFDCF83
:1040100081E08093EE020E94151C8091E10080FFF8
:1040200019C08091E20080FF15C08091E2008E7F70
:104030008093E2008091E20080618093E2008091B1
:10404000D80080628093D80019BC85E08093EE028E
:104050000E94291C8091E10084FF2BC08091E20026
:1040600084FF27C080E189BD82E189BD89B5982F91
:10407000917080FFFBCF8091D8008F7D8093D80016
:104080008091E1008F7E8093E1008091E2008F7E3D
:104090008093E2008091E20081608093E200809151
:1040A000EA02882309F449C084E08093EE020E946A
:1040B000321C8091E10083FF29C08091E20083FFE0
:1040C00025C08091E100877F8093E10082E08093AA
:1040D000EE021092EA028091E1008E7F8093E1006F
:1040E0008091E2008E7F8093E2008091E200806107
:1040F0008093E20042E060E080E00E94D01E809168
:10410000F00088608093F0000E94261CFF91EF91E0
:10411000BF91AF919F918F917F916F915F914F91DF
:104120003F912F910F900FBE0F901F90189519BCC3
:104130001092EE020E94231C70CF8091E30087FD55
:1041400093E09093EE02B3CF1F920F920FB60F92AF
:1041500011242F933F934F935F936F937F938F938C
:104160009F93AF93BF93CF93DF93EF93FF93D09140
:10417000E900DF708091EC00C82FC17080FDC0E8BD
:104180001092E9008091F000877F8093F00078948E
:104190000E94E8201092E9008091F00088608093EE
:1041A000F000CD2BCF70C093E900FF91EF91DF912C
:1041B000CF91BF91AF919F918F917F916F915F91BF
:1041C0004F913F912F910F900FBE0F901F90189518
:1041D000AAE2B0E0EEEEF0E20C9486228FEE92E0DE
:1041E0002091F100FC012193CF01F2E0873F9F076E
:1041F000B9F70E94521C8091E80083FF1EC1809194
:10420000EF029091F0029A3008F017C1E92FF0E028
:10421000EF5AFC4D0C947122803899F0823809F0E5
:104220000CC18091F3028F70873008F006C1809333
:10423000E9008091EB0085FB882780F91092E90066
:1042400006C08091EB029091EC02911182609091F6
:10425000E800977F9093E8008093F1001092F100BE
:104260008091E8008E77E5C0882309F4D3C08230BE
:1042700009F0E3C08091F1028111D6C08091F30270
:104280008F702FEF280F263008F0D7C08093E900F9
:104290002091EB0020FFC8C0933031F48091EB00F7
:1042A00080628093EB00C0C09091EB00906190938E
:1042B000EB0021E030E001C0220F8A95EAF720935D
:1042C000EA001092EA008091EB008860EACF811149
:1042D000B4C01091F1021F778091E3008078812BA8
:1042E0008093E3008091E800877F8093E8000E943C
:1042F000041F8091E80080FFFCCF8091E30080687C
:104300008093E30082E0111183E08093EE0295C078
:104310008058823008F091C08091F1029091F202B1
:104320008C3D23E09207A1F583E08A838AE28983AA
:104330004FB7F894DE01139620E03EE051E2E32F00
:10434000F0E050935700E49120FF03C0E295EF7036
:104350003F5FEF708E2F90E0EA30C0F0C7968D93EC
:104360009D932F5F243159F74FBF8091E800877FDD
:104370008093E8006AE270E0CE0101960E94131E6D
:104380008091E8008B778093E80057C0C096E7CF14
:104390006091F3027091F402AE014F5F5F4F0E9493
:1043A000531DBC01892B09F448C09091E800977F08
:1043B0009093E80089819A810E94711EE1CF803834
:1043C000E1F58091E800877F8093E8008091EA0220
:1043D0008093F10045CF811130C09091F10292306D
:1043E00060F58091E800877F8093E8009093EA026F
:1043F0000E94041F8091EA02882311F084E005C026
:104400008091E30087FDFACF81E08093EE020E9465
:104410003D1C13C08091F102813079F481E093302A
:1044200009F080E08093EC021092E9008091E800AE
:10443000877F8093E8000E94041F8091E80083FF3B
:104440000AC08091E800877F8093E8008091EB00AC
:1044500080628093EB00AA96E3E00C94A222089578
:10446000CF938091EE028823A1F0C091E900CF7034
:104470009091EC00892F817090FD80E8C82B1092FC
:10448000E9008091E80083FD0E94E820CF70C0938E
:10449000E900CF9108950E94541F1092EE020895F2
:1044A000E8EDF0E08081806180838AE18A95F1F710
:1044B00000C08091D9008170089597FB072E16F4F3
:1044C000009407D077FD09D00E94AE2207FC05D0EA
:1044D0003EF4909581959F4F0895709561957F4F1B
:1044E0000895EE0FFF1F0590F491E02D09942F928F
:1044F0003F924F925F926F927F928F929F92AF9274
:10450000BF92CF92DF92EF92FF920F931F93CF93C0
:10451000DF93CDB7DEB7CA1BDB0B0FB6F894DEBF57
:104520000FBECDBF09942A88398848885F846E847D
:104530007D848C849B84AA84B984C884DF80EE80C7
:10454000FD800C811B81AA81B981CE0FD11D0FB6D0
:10455000F894DEBF0FBECDBFED010895AA1BBB1BB3
:1045600051E107C0AA1FBB1FA617B70710F0A61B73
:10457000B70B881F991F5A95A9F780959095BC0194
:10458000CD010895FB01DC0104C08D9101908019DB
:1045900021F441505040C8F7881B990B0895FB0146
:1045A000DC0102C001900D9241505040D8F70895AF
:1045B000F999FECF92BD81BDF89A992780B50895EB
:1045C000A8E1B0E042E050E00C940C23262FF999CA
:1045D000FECF92BD81BDF89A019700B4021639F062
:1045E0001FBA20BD0FB6F894FA9AF99A0FBE089533
:1045F0000396272F0E94E7220E94E622252F0E9481
:10460000E722242F0C94E7220196272F0E94E7220D
:104610000C94E622DC01CB01FC01F999FECF06C027
:10462000F2BDE1BDF89A319600B40D924150504070
:10463000B8F70895F894FFCF120412044504450416
:10464000DA04F40471047104F9046C057D057D0538
:1046500026169A162E16F815FC1532160016361662
:1046600042160C1693161016461614164A16721693
:1046700018164E1679161E1654165C1604163A169F
:1046800008163E1622165816681682169116F2154E
:104690002A16A11655175B1744174F17611767178E
:1046A0006D170C2134211D2234211D226721882100
:0646B0001D22DF21EB21B9
:1046B6003C0293F494F73392F5F631C691906697DF
:1046C60034FFFFFF36320100000001000000000049
:1046D600000004010000000405000000000000289E
:1046E6000850011E0A1401BC1BF11BEA1BE31B0147
:1046F60033F794F493C631F6F59234976690913673
:1047060032FFFFFFE200E900EA00B500B600B7009D
:10471600CD008301CC008A0192019401210223027B
:1047260024022502260227022A02B300B4006F00E3
:1047360070009F01CB01818283E200E900EA00B5A7
:1047460000B600B700CD008301CC008A0192019427
:10475600012102230224022502260227022A02B38D
:1047660000B4006F0070009F01CB01818283790243
:00000001FF
