:100000000C94DE010C94FB010C94FB010C94FB019D
:100010000C94B4180C94FB010C94FB010C94FB01A0
:100020000C94FB010C94FB010C9468200C943C2173
:100030000C94711B0C94FB010C94FB010C94FB01C0
:100040000C94FB010C94FB010C94FB010C94FB0140
:100050000C94FB010C94141C0C94FB010C94FB01FC
:100060000C94FB010C94FB010C94FB010C94FB0120
:100070000C94FB010C94FB010C94FB010C94FB0110
:100080000C94FB010C94FB010C94FB010C94FB0100
:100090000C94FB010C94FB010C94FB010C94FB01F0
:1000A0000C94FB010C94FB010C94FB0114001A004E
:1000B00009001300050004221521162417280A0040
:1000C0001D231B00060007001900000000000000AF
:1000D00028442C421F121C0018000F000D00123281
:1000E0000C310834113810003433370036000B005F
:1000F0000E000000000000004C2F2A4314001A00DC
:1001000008001500170004221621072409280A00F8
:100110001D231B0006001900050000000000000060
:1001200028442C42130012000C0018001C0033322B
:100130000F310E340D380B00383337003600100005
:1001400011000000000000004C2F2A4329004A0043
:1001500052004D004B002B00500051004F004E004C
:100160002B0448002C00280049000000000000007B
:10017000000001002E0226002500240027002D3259
:1001800023312234213827002E3320001F001E0087
:1001900037000000000000004C002A00211420025B
:1001A0002102320036022D0264002F0026022F02A7
:1001B000340235001E023802230200000000000055
:1001C00028002C002E0222022502310237022D00C7
:1001D00038003000270230022E0033023300640260
:1001E0002402000000000000000001002900D200ED
:1001F000CD00D300D900D100CF00CE00D000DA006E
:100200001D011B01060119011C0100000000000076
:10021000010000006A004200410040004500690002
:100220003F003E003D00440068003C003B003A00B7
:1002300043000000000000004C002A00100363008F
:10024000680069007000730033003400000024036C
:1002500041006C006500780061006E00640065007C
:10026000720020004900720065006C0061006E00A1
:10027000640000000403090409023B00020100A01D
:10028000FA09040000010301010009211101000124
:100290002240000705810308000109040100010351
:1002A00000000009211101000122B60007058203A8
:1002B0002000011201000200000008EDFE00000015
:1002C000010102000105010902A10185020901A144
:1002D00000050919012908150025019508750181F6
:1002E000020501093009311581257F9502750881C4
:1002F0000609381581257F950175088106050C0AC8
:1003000038021581257F950175088106C0C0050159
:100310000980A101850319012AB700150126B7003C
:10032000950175108100C0050C0901A10185041912
:10033000012AA002150126A002950175108100C0B6
:1003400005010906A1018506050719E029E7150041
:1003500025019508750181020507190029EF15008F
:10036000250195F0750181020508190129059505FA
:1003700075019102950175039101C005010906A15E
:1003800001050719E029E715002501950875018188
:10039000029501750881010507190029FF1500263E
:1003A000FF009506750881000508190129059505C6
:1003B00075019102950175039101C00011241FBEC2
:1003C000CFEFDAE0DEBFCDBF11E0A0E0B1E0E6EEB6
:1003D000F7E402C005900D92A03CB107D9F722E0E6
:1003E000A0ECB1E001C01D92A73FB207E1F70E9467
:1003F000BD130C94B2230C9400008530B8F468301F
:10040000A8F4453098F450E095E0699F400D511DE7
:100410001124FA0198E2899FE00DF11D1124EE0FDD
:10042000FF1FE455FF4F85919491089580E090E07F
:1004300008950E94FD01089581E0089581E00895E6
:100440000E941E02089508950E9423020895A5E0C7
:10045000B0E0EDE2F2E00C941E2349835A83309120
:10046000C70189819A81311119C0662399F022232D
:1004700089F00E940908182F682F89819A810E94AB
:10048000E50769817A81812F0E949E0E2596E3E01F
:100490000C943A230E94F707182FF3CF0E94090803
:1004A00069817A81F1CFFC01262F408151816281DF
:1004B000738184810E942702089581E00895CF937B
:1004C000DF93EC0160E00E945302BE010E9424020F
:1004D000DF91CF9108950E94121008950E94161086
:1004E000089508950E944B040E9471022FEF84E347
:1004F0009CE0215080409040E1F700C0000008954A
:100500000E9472020E94381C08950E9472020E948A
:10051000491C08950F931F93CF93DF938C0161E0E3
:100520000E945302EC01B8010E942002811106C012
:1005300080E0DF91CF911F910F910895B801CE0116
:100540000E94D0178823A1F3B801CE010E9466163D
:10055000882371F3B801CE010E944217882341F32A
:10056000F8018281882361F0C330FCE7DF07E9F0FE
:1005700058F4C115ECE7DE07A9F0C130DC47B9F04B
:10058000C8010E941C02D5CFCB358CE7D807A9F053
:10059000CC35ECE7DE0771F0CA35DC4789F70E94FD
:1005A000430CEECF0E948002C3CF0E944B0C0E94EE
:1005B0008502BECF0E94390CE3CF0E94470CE0CFEA
:1005C0000E944E1B0E940A0308950E940E030E947F
:1005D000531B089508950E94EA02089581E008954A
:1005E0000895CF93DF93D82F0E94EE02C82F88235F
:1005F00019F08D2F0E94F0028C2FDF91CF9108957A
:100600000895CF93C82F0E94EB028C2F0E94F10215
:10061000CF91089580E00E94010308950E94DA19A5
:100620000E9401030895CF930E94DA19C82F809188
:10063000C2018C1779F0C093C2010E94DD1B609348
:10064000C3017093C4018093C5019093C6018C2FA0
:100650000E940103CF91089580E00895ABE0B0E0DF
:10066000E4E3F3E00C941F234F83588769877A876C
:100670008B878A859B85892B21F0CA0189238F3F2F
:1006800059F5898581110E94840B1E821D8285E0A7
:10069000FE013796DE01119601900D928A95E1F7E1
:1006A0008C819D81892B61F449815A816B817C8188
:1006B0008D819E810E94AD0A2B96E2E00C943B2333
:1006C00089819A8189238F3F79F3CE0101960E9417
:1006D0005D028111E9CFF0CF8091C8019091C901ED
:1006E00001969093C9018093C801CBCFFC01808112
:1006F00091810E943B080895662329F00E944114CD
:100700000E94141508950E949B14FACFCF93C82F0E
:100710008823B9F08CEF8C0F813AA8F46C2F80916C
:100720000001909101010E94741A882329F08C2FF6
:100730000E94440B0E94A50B8C2F0E943C0B0E9430
:10074000A50BCF91089580E28C0F883048F4C770D4
:1007500081E001C0880FCA95EAF70E94670BEFCFCE
:10076000EBE5EC0FE33040F4F0E0EA57FE4F808118
:1007700090E00E94161AE5CFE8E5EC0FE93150F45D
:10078000F0E0EE0FFF1FEC5AFE4F808191810E9436
:100790003B1AD7CF83E38C0F833198F661E08C2F1F
:1007A0000E947C03CECF882381F19CEF980F913A71
:1007B00028F40E94440B0E94A50B089590E2980F24
:1007C000983050F4877091E001C0990F8A95EAF74C
:1007D000892F0E946D0BEFCF9BE5980F933028F483
:1007E00090E080E00E94161A089598E5980F9931DC
:1007F00028F490E080E00E943B1A089593E3980F5C
:10080000933118F460E00E947C0308951F93CF9306
:10081000DF93182FEB010E948603209739F4812F74
:100820000E94D303DF91CF911F9108958FE99FE03C
:100830000197F1F700C000002197EFCF70E060E072
:10084000893311F460E570E00E940604089588235E
:1008500021F00E94670B0E94A50B0895882321F0C8
:100860000E946D0B0E94A50B089590E080E00E940D
:10087000161A90E080E00E943B1A0E94840B0E94AE
:10088000A50B0E9430150E94141508950E944C0B70
:100890000E94350408950E94740B0E944604089536
:1008A00092959F70963091F058F4925F9F709230BD
:1008B00058F4803F19F030F4883E30F481E0089518
:1008C0009A5FF4CF843FD1F380E00895883EB0F37F
:1008D000813FD1F7F3CFFC0183819481892B29F0EB
:1008E0008081918189238F3F11F480E00895808178
:1008F00091810E943B080E9450040895B0E0A0E05E
:10090000E4E8F4E00C9418236C01EB01FC01128183
:10091000058102950F700E945D0BE82E8823B9F0C7
:10092000E12E1123A1F08D2F807F803421F080E211
:100930008C0F8830D0F08091D30282FF16C082E005
:100940000E94080C0E945D0B91E0E82EE926BD2E66
:10095000B2942FE0B222FBE0FB1508F467C0EB2D48
:10096000F0E0EC54FC4D0C940923E12CF0CF2D2F3A
:100970002F70F22E8D2F807F19F0F29490EFF922D4
:10098000112399F0FF2059F080E28C0F883010F08D
:10099000C11107C08F2D0E94670B0E94A50B8C2FE1
:1009A0003DC08F2D0E94770BF8CF8C2F0E94D30370
:1009B000FF20E1F180E28C0F883010F0C11104C0FB
:1009C0008F2D0E946D0B03C08F2D0E947D0B0E9406
:1009D000A50B2CC03D2F3F70F32E8D2F807F8032D2
:1009E00019F0F29480EFF822CC2351F0C13009F4D1
:1009F0006AC0112309F472C0002309F469C0CFCF83
:100A00008091D30282FD3CC0112359F0FF2029F0D0
:100A10008F2D0E94670B0E94A50B80E00E94860329
:100A200005C080E00E94D303F110CACFEB2DE8503F
:100A3000FF0B349720F40E94DA190E940103CE01C3
:100A40000E945004811160C11092C9011092C80126
:100A5000EE2089F00E94590B80FD0DC0F601128234
:100A60000E94530B0E944307C6010E94BD060E94CC
:100A7000530B0E945307CDB7DEB7E9E00C94342343
:100A8000112381F0011106C00E94870B8F290E945B
:100A90002704CCCF0130C1F70E94870B8F290E9419
:100AA0008E0BC4CF011106C00E949B0B8F2D0E949C
:100AB0002E04BCCF013009F4B9CF8F2D0E942E0433
:100AC0000E949B0BB3CF112329F0063008F0AECF64
:100AD0008F2DDDCF053008F0A9CFE8CF002331F30B
:100AE000C93349F48FEF97EEE3E081509040E04046
:100AF000E1F700C000008C2F0E94D30397CF8D2F09
:100B000086958695837061F0813009F08FCFCE0194
:100B10009370111102C080E090E00E943B1A86CFD2
:100B2000CE019370111102C080E090E00E94161A6D
:100B30007DCF612F8C2F0E947C0378CF8D2F837007
:100B4000A9F5111173CF2C2F229526952770220F0E
:100B5000220F4C2F4F7050E0022E02C0440F551F41
:100B60000A94E2F790E080E0C4FF09C08FE090E0D3
:100B700002C0880F991F2A95E2F7809590952D2F36
:100B8000269526952370842B952B223049F058F416
:100B9000213019F00E94130749CF0E940A0746CF5F
:100BA0000E941C0743CF0E94070740CF8695112360
:100BB00011F08D2F8170882309F438CF2C2F2295C6
:100BC00026952770220F220F4C2F4F7050E0022ED7
:100BD00002C0440F551F0A94E2F790E080E0C4FF82
:100BE00009C08FE090E002C0880F991F2A95E2F7B4
:100BF000809590952D2F269526952370842B952BE7
:100C0000223049F058F4213019F00E947E070ECFAF
:100C10000E9475070BCF0E94870708CF0E942B0701
:100C200005CFFD2FFF70FF2E112329F08F2F0E947B
:100C300043078C2F2CCF8C2F0E942E048F2D0E94C7
:100C40005307F4CEC23F41F160F4C03FB9F0C13F59
:100C500081F0112309F448C00111A1CE8D2F8F71AD
:100C60001FC0C33F01F1C43FA1F78091D30282FDB1
:100C700024C08D2F8F71112311F312C0112341F065
:100C8000053008F0D3CE8D2F8F710E946507CECE30
:100C9000063008F0CBCEF7CF8D2F8F711111CFCF4B
:100CA0000E944307C3CE112329F08D2F8F710E941C
:100CB0003707BCCE0E943207B9CE112359F02D2F31
:100CC0002F71F22E822F0E94430763E08F2D0E9426
:100CD000EA0BACCE81E00E94080C023008F4A6CEEC
:100CE00082E00E94080CA2CE002359F0C93309F01B
:100CF00002CF3FEF87EE93E0315080409040E1F724
:100D0000F8CE8D2F8F719BCF112319F001119CCE3E
:100D10009FCE011199CE20E0F60140815181628180
:100D2000738184810E942702B6010E942C038823CC
:100D300009F48ACE8091C8019091C901029709F007
:100D400083CE8C2F0E941E047FCE0F931F93CF93D0
:100D5000DF93EC01688179818A810E9446088C01C9
:100D60000E9490070E940607B801CE010E947E04EF
:100D7000DF91CF911F910F910895CF93DF93EC01F5
:100D80008B819C81892B29F08881998189238F3FD0
:100D900051F4DF91CF910895CE010E94A506CE01B6
:100DA0000E945F02F6CFCE010E948A028111F4CF29
:100DB0000E945D0B882369F38A81882351F3809117
:100DC000D30282FFE6CF82E00E94080CE2CFA5E0CA
:100DD000B0E0EDEEF6E00C941F232596E2E00C94D3
:100DE0003B23A6E0B0E0E7EFF6E00C941F23269645
:100DF000E2E00C943B2308950E94FB0608950E94B4
:100E0000FC069093E1018093E001089508950E940B
:100E1000FF0608952091E0013091E101822B932B90
:100E20000E94FF0608952091E0013091E1018223A4
:100E300093230E94FF0608952091E0013091E10183
:100E4000822793270E94FF0608950E94FB060895BB
:100E50000E94250708950E9428079093DF01809340
:100E6000DE01089590E080E00E942B07089521E0C4
:100E700030E0A90102C0440F551F8A95E2F7CA016C
:100E80000E942B07089521E030E002C0220F331F9B
:100E90008A95E2F78091DE019091DF01822B932BFE
:100EA0000E942B07089521E030E002C0220F331F7B
:100EB0008A95E2F7209530958091DE019091DF01CF
:100EC000822393230E942B07089521E030E002C083
:100ED000220F331F8A95E2F78091DE019091DF01A6
:100EE000822793270E942B0708952091DE013091DD
:100EF000DF01822B932B0E942B0708952091DE01A6
:100F00003091DF01822393230E942B0708952091C3
:100F1000DE013091DF01822793270E942B0708957D
:100F20000895262F277091E001C0990F2A95EAF7BE
:100F300023E0769567952A95E1F7660F771F660F90
:100F4000771FFA01E60FF71F50E040E0682F70E0CE
:100F50008191DF0111979B01042E02C036952795E0
:100F60000A94E2F7217021952827292328272C931A
:100F70004F5F5F4F4430510559F70895A82FA77070
:100F800023E0969587952A95E1F7880F991F880F9A
:100F9000991FFB01E80FF91F50E040E080E021912C
:100FA00030E00A2E02C0369527950A94E2F72170A8
:100FB0003327042E01C0220F0A94EAF7822B4F5FD9
:100FC0005F4F4430510559F70895262F983070F43B
:100FD000853060F4682F70E085E0989F600D711D8A
:100FE00011244AEC51E0822F0E9491070895292F85
:100FF000983068F4853058F490E06AEC71E035E0A0
:10100000239F800D911D11240E94BE07089580E04A
:101010000895B0E0A0E0EFE0F8E00C9418237C0124
:101020000091DE011091DF018091E0019091E101DA
:10103000082B192BCFE0D0E0CC24C394D12CBC2EAC
:10104000C6010C2E02C0880F991F0A94E2F7802374
:101050009123892B49F4219790F7B12C8B2DCDB793
:10106000DEB7E9E00C943423B7018C2F0E94AA0E5E
:10107000019789F3F3CFCF93DF93EC010E94090826
:10108000BE010E94AA0EDF91CF9108951F93CF93C6
:10109000DF93EB019091C701992339F0CB010E94B6
:1010A0003B08DF91CF911F910895882369F0CB0110
:1010B0000E940908182F682FCE010E94E507BE0183
:1010C000812F0E94AA0EEDCFCB010E94F707182FA7
:1010D000F6CF1F93CF93DF93C091E20116E080918A
:1010E000E3018C1304C0DF91CF911F910895D0E0EC
:1010F0001C9FF0011D9FF00D1124EC51FE4F40810B
:10110000518162817381848195810E94F1062196CB
:10111000C770E5CF409114025091150260911602FC
:101120007091170280911802909119020E94F106A5
:1011300008952091E2019091E30156E0291302C045
:1011400080E0089530E0529FF001539FF00D11248C
:10115000EC51FE4F7181761306C07081781303C085
:101160007281741304C02F5F3F4F2770E7CF81E077
:1011700008951F93CF93DF9380911902807F09F028
:1011800049C080911602882309F444C08091E2018D
:10119000C091E3016091140270911502A0911702B1
:1011A000B0911802D62FD72316E0C81799F190E016
:1011B000109711F0DF3F19F401968770F6CF189F52
:1011C0009001199F300D1124F901EC51FE4F41811E
:1011D0004713F2CF40814613EFCF42814111ECCF4C
:1011E000438154814A1B5B0B413E510528F7809196
:1011F00019028F70806180931902F901E751FE4F47
:1012000080818F708061808384E192E00E94BD06BE
:101210000E946908DF91CF911F910895A1E1B0E08C
:10122000E4E1F9E00C9415238C0185E0F801DE017E
:101230001D9601900D928A95E1F7D8011296EC90D7
:10124000129784E1A82E82E0B82E409117025091A7
:1012500018024115510509F461C1909114022091C1
:101260001502892F82238F3F09F458C1CC90119623
:10127000DC90119713968D909C901497F090160225
:10128000F401E41BF50BFF2009F4F6C0809119026C
:10129000382F307FE13EF10508F0B0C031117BC03E
:1012A000FE2CD21217C09C1115C0E11013C08F7014
:1012B0008061809319020E948A08C5010E94BD06C0
:1012C00080911902D80115968C938F2D6196ECE0D0
:1012D0000C9431238114910429F08D2D8C218F3FA2
:1012E00009F038C180E080FF15C04E2D6D2D8C2D8A
:1012F0000E949908882371F084E192E00E94BD0663
:1013000086E0E4E1F2E0DF011D928A95E9F70E94B0
:101310008A083FC08114910429F08D2D8C218F3FC4
:1013200009F015C180E0B82FB170AB2E80FF29C045
:101330004E2D6D2D8C2D0E949908B82E811121C043
:10134000CD86DE868D859E850E943B08292F2295BD
:101350002F70223050F0243078F49F7051F0F80153
:101360009581907F31F4FB2CB0CF9F7011F08823D2
:10137000D1F3805E8830B8F3C8010E94BD06BA2C54
:10138000F2CFEE2009F4A1CF809119028160809301
:101390001902F12C9ACFD21205C09C1103C0EE2085
:1013A00009F487C0C8010E946B04882319F1EE205C
:1013B00009F180911902803270F02091140230916D
:1013C000150238872F8319869B868A868C87CE01E3
:1013D00007960E94BD0686E0F801A4E1B2E0019004
:1013E0000D928A95E1F70E94B9080E948A08FF24AD
:1013F000F3946BCFC8010E94BD06F9CF311112C022
:10140000782D998A888AA6016E2D89890E94E7061F
:1014100084E192E00E94BD0686E0F50111928A9572
:10142000E9F775CFD2120FC09C110DC0E1100BC0AF
:1014300015968C93C8010E94BD0686E0F5011192B5
:101440008A95E9F742CFC8010E946B04882391F284
:10145000EE2081F280911902803208F4BCCF2091F5
:101460001402309115023A8329831B829D828C825B
:101470008E83CE010196ADCFE13EF10508F040C06C
:10148000FE2CEE2009F4B6CFD2122CC09C112AC03B
:101490008091190280FD1DC0982F907FD1F0159684
:1014A0008C931597903F39F0982F907F905F8F70B5
:1014B000892B15968C93C8010E94BD0686E0F80121
:1014C000A4E1B2E001900D928A95E1F70E948A08AA
:1014D000FCCE86E0F801A4E1B2E001900D928A957D
:1014E000E1F7F3CEC8010E946B04811174CF8091A3
:1014F0001902816080931902C8010E94BD06E5CEE1
:10150000782D998A888AA6016E2D89890E94E7061E
:1015100086E0F50111928A95E9F7D8CFEE2009F41B
:1015200069CFC8010E946B04F82E882309F462CFAA
:1015300086E0F801A4E1B2E001900D928A95E1F70E
:1015400084E192E00E9476030E94B908BFCF81E057
:101550008E25E9CE81E08E25C6CEACE0B0E0E3EB8F
:10156000FAE00C941E234F83588769877A878B870C
:101570009C87CE0107960E940E09882369F08A8510
:101580009B85892B39F04F815885842F85238F3F88
:1015900009F06BC016E05FC086E0FE013796DE0101
:1015A000119601900D928A95E1F78A859B85892B8A
:1015B00089F38F81988589238F3F61F32091E3011F
:1015C00030E0C9010196877099274091E2014817E0
:1015D000190671F40E944B041092E3011092E2018B
:1015E00086E0E4E1F2E0DF011D928A95E9F7D2CFCF
:1015F00096E0929FD001939FB00D1124AC51BE4F45
:10160000FE01319601900D929A95E1F78093E301E6
:101610000E946908BFCF819FC00111248C519E4F49
:101620000E940E098823E9F0E091E2011E9FF0017B
:101630001124EC51FE4F408151816281738184817C
:1016400095810E94F1068091E20190E001968770F9
:1016500099278093E2018091E2019091E30189133F
:10166000DACF2C96E3E00C943A2369857A858B8552
:101670009C850E94F1068ECF682F80910001909189
:1016800001010E94F41A0895682F80910001909141
:1016900001010E94021B08958091000190910101B7
:1016A0000E94101B089580913A0285958595859535
:1016B000089580913A028770089590913A02977048
:1016C00081E009F480E0089580915D020895909191
:1016D0005D02892B80935D020895809590915D0253
:1016E000982390935D02089510925D020895909161
:1016F0005C02892B80935C020895809590915C0236
:10170000982390935C02089510925C020895809152
:101710003B02089508950E948A0B08959091D30288
:1017200092FF08C090913B02981721F080933B02F2
:101730000E948B0B089580913B02882329F0109220
:101740003B0280E00E948B0B0895CF93DF93E091E2
:101750000001F091010180915D028083E091000120
:10176000F0910101808190915C02892B808390919E
:101770003B02992381F0E0910001F0910101808109
:10178000892B808380910001909101010E94601A51
:1017900081110E949B0BC0910001D091010140E298
:1017A00050E06AE172E0CE010E945A23892B59F081
:1017B00080E2FE01AAE1B2E001900D928A95E1F784
:1017C000CE010E94EE19DF91CF91089508950E94F5
:1017D000E60B08959091D30292FF11C098E0899F83
:1017E00090011124622B60933A020E94430780917A
:1017F0003A028595859585950E94E70B08950E948C
:101800004307089510923A0280E00E94E70B089582
:1018100090913A028095892380933A02282F27706D
:1018200091F4282F082E000C330B9217130659F051
:101830009091D30292FF07C08595859585950E946A
:1018400053070E94020C08959091D30292FB222725
:1018500020F9281769F080FB92F99093D3028091C8
:10186000D2029091D3020E946C0C82E00E94080C7C
:1018700008958091D30282FB882780F991E089271F
:101880000E94240C089581E00E94240C089580E0B9
:101890000E94240C08956FEF7FEF90E080E00E949B
:1018A0009C23089590E080E00E94782321E0873E09
:1018B0009E4F09F020E0822F089582E090E00E9480
:1018C0007023089583E090E00E947023089584E0DF
:1018D00090E00E9478230895BC0184E090E00E948B
:1018E0009C230895AB01BC018FE090E00E949023FF
:1018F0000895AB01BC0183E190E00E94902308951C
:1019000060E070E0CB010E94790C089560E070E027
:10191000CB010E94720C0E94800C089567EE7EEF4E
:1019200090E080E00E949C2360E082E090E00E94D2
:101930007E2360E083E090E00E947E231092E1012C
:101940001092E00160E074E184E090E00E949C234A
:1019500060E086E090E00E947E236FEF87E090E0F9
:101960000E947E2340E050E0BA0188E090E00E94AF
:10197000902360E08DE090E00E947E2340E050E004
:10198000BA0188E190E00E94902360E087E190E056
:101990000E947E2340E050E0BA018CE190E00E947A
:1019A000902370E060E080E290E00E949C2340E0A1
:1019B00050E0BA0188E190E00E9490230E94860CDA
:1019C00008950E948E0C0895682F8EE090E00E948A
:1019D0007E2308950E94DD1B60936C0270936D025C
:1019E00080936E0290936F02609368027093690215
:1019F00080936A0290936B020895089508950E945F
:101A0000FE0C089508950E94020D089584ED9FE054
:101A10000E94D0190E94FD0C0E94FF0C08950E94A4
:101A2000B1110895089508950E94120D0E94130D9A
:101A300008950E94F30F0E94000308950E94C81B9E
:101A40000E94940F0E94CC110E94E1100E94190D77
:101A50000E944E160E94D6110E94030D0895AAE01E
:101A6000B0E0E5E3FDE00C9417230E94351180E619
:101A7000A82E82E0B82E750110E0F70101917F01D8
:101A8000812F0E9419101F5F183009F440C00817F9
:101A9000A1F38091700281FD0E941F100E940F0D22
:101AA000C82E10E0812F0E941910082FF501819196
:101AB0005F01081731F1D02ED826F12CEE24E394E3
:101AC0008D2D8E21B1F0CC20A1F0FE821F8391E0FC
:101AD000802F8E2109F490E098870E94D11B8160AD
:101AE000782F9A8789874E815F8168858A850E94D1
:101AF0002E03F394EE0CF5E0FF12E2CFF5013197DF
:101B000000831F5F183071F60E94EA0C20C0081392
:101B1000C0CF0E94D11B8C0180915E0290915F0228
:101B200008171907A1F08FEF89838A831B820E940F
:101B3000D11B8160782F9D838C8349815A816B8171
:101B40008D810E942E0310935F0200935E020E941B
:101B5000B1110E9452150E9413032A96EAE00C94D8
:101B60003323CF93DF930E94AF0EEC01811520E564
:101B70009207D0F5811530E4930708F086C0803EC7
:101B8000910518F58D3C910508F07DC0883A9105C6
:101B900070F4853A910508F06EC08130910501F12D
:101BA0000097F1F00497E0F4D0E0C0E019C0813C68
:101BB0009105D0F7C85AD0E0CC0FDD1FC757DE4FD4
:101BC0000990D881C02DD4640BC08115904208F0D3
:101BD000A8C0C11581E0D80718F4C83ED10520F788
:101BE000CE01DF91CF910895803622E5920710F55E
:101BF000803432E5930708F052C08032924508F0F5
:101C000047C0C11582E5D80708F47DC02C2F269562
:101C1000269540E2249F900111248C2F8370C1E00F
:101C2000D0E002C0CC0FDD1F8A95E2F7C22BD32B88
:101C3000DD68D6CF803A22E5920760F4803832E53D
:101C4000930708F441C0CF71D0E0DC2FCC27C46FDC
:101C5000D06AC6CF803C42E5940708F449C0C03E34
:101C600082E5D80708F0A0CFDC2FCC27CC27DF7186
:101C7000C06FD06AB5CFC55AD0E0C554DE4FC88119
:101C8000D0E0D064ADCFD065ABCFDF70D06AA8CF45
:101C9000CF71D0E0DC2FCC27C16FD06AA1CF282F25
:101CA00026952695277080E2289F900111248C2F7D
:101CB0008370C1E0D0E002C0CC0FDD1F8A95E2F74F
:101CC000C22BD32BDC688CCF282F26952695277026
:101CD00040E2249F900111248370C1E0D0E002C053
:101CE000CC0FDD1F8A95E2F7C22BD32BDA6878CFB1
:101CF0008F710E94510FC82FD0E0DC2FCC27CC274A
:101D0000DF71D0626DCF8C2F8F710E94510F35E043
:101D1000D695C7953A95E1F7CF709C2FEC01D06925
:101D20005FCF8D2F8F710E94510F90E0982F8827E1
:101D300088279F719C012C2BE901E3CF462F783037
:101D400030F4653020F4672F0E941902089590E066
:101D500080E008950E949E0E0E94B10D0895823881
:101D60009105B9F1B0F48133910509F47DC048F4CF
:101D70008932910509F46DC08A32910509F47BC05E
:101D800008958533910509F45FC08933910509F100
:101D90000895833E9105D9F138F4803E910529F1EB
:101DA000823E910579F10895863E9105D9F1873EED
:101DB000910509F43EC0843E910541F52091D3027E
:101DC00021FF24C08091D20284FD19C087EE90E0EB
:101DD00008952091D202237009F05AC02091D302B5
:101DE00023FF14C089E290E008952091D20220FDE3
:101DF00038C03091D30230FF09C024FF43C090E0C7
:101E000080E008952091D20222FDF7CF089520911D
:101E1000D20222FD3AC03091D30230FD39C024FFF6
:101E2000F5CFEDCF2091D20223FFF0CF24FDE7CFF5
:101E3000CDCF2091D20223FD2EC03091D30231FFAD
:101E4000EECF84EE90E008952091D20225FFDECF00
:101E5000C9CF2091D20225FD21C02091D30223FFBA
:101E6000D5CF89E390E0D2CF2091D20226FFCECF0A
:101E70008AE290E008952091D20226FFC7CF81E345
:101E800090E0089583EE90E0089582EE90E008954A
:101E900080EE90E0089586EE90E0089585E390E06E
:101EA00008959091D20292FF06C0282F2871283001
:101EB000F9F4877F846093FF06C0282F28712831AA
:101EC000F1F4877E84612091D30220FF06C0382F71
:101ED00038713830D9F4877F816021FF06C0282F00
:101EE00028712831D1F4877E816194FD877E089521
:101EF000282F24712430F9F68B7F8860DCCF282FBF
:101F00002471243101F78B7E8861DDCF382F317148
:101F1000313019F78E7F8860E0CF282F2171213171
:101F200021F78E7E8861E1CF1092CE021092CF020F
:101F30001092D0021092D1020895CF92DF92EF92C8
:101F4000FF926B017C010E94B11181110EC00E94B1
:101F5000DD1BC61AD70AE80AF90AC092CE02D0924F
:101F6000CF02E092D002F092D102FF90EF90DF908A
:101F7000CF9008950F931F930E94B111882329F0E9
:101F80000E94DD1B1F910F9108950E94DD1B00919F
:101F9000CE021091CF022091D0023091D102600F79
:101FA000711F821F931FEECF80E008950E944B0C9B
:101FB00008950E9435112FEF86E791E0215080406F
:101FC0009040E1F700C000000E94351180E00E94BF
:101FD000191080FF04C00E94D60F0E94381C08957B
:101FE0000E94D90F08950E94520C811102C00E94D4
:101FF000E10C0E945D0C809370020E94670C90932C
:10200000D3028093D2020E94F00F0E94620C90E0F3
:102010000E9407078091DE019091DF010E9428074E
:10202000089508950E941110089508950E941510B2
:102030000895E82FF0E0E352FD4F80810895089560
:1020400008950E9420100895EF92FF921F93CF935E
:10205000DF9300D000D0CDB7DEB70E94B111182FAA
:102060006091E502882309F447C019821A821B8215
:102070001C82862F90E09E012F5F3F4F7901B901AE
:1020800083529D4F0E94E4118823E9F08091D4028D
:1020900090E044E050E0B70183529D4F0E945A23E4
:1020A00021E020937102892BC9F410E00E946E0296
:1020B000812F0F900F900F900F90DF91CF911F9174
:1020C000FF90EF90089580917102882371F384E06E
:1020D000F70111928A95E9F710927102E091D4020A
:1020E000F0E0E352FD4F89819A81AB81BC8180830E
:1020F0009183A283B383DACF70E063527D4F8091E6
:10210000D40290E083529D4F0E946B120E942110D6
:10211000CFCF1F93CF93DF9322E031E0C1E0D0E037
:10212000D90150E040E08D918F3F91F0E82FE2958A
:10213000EF70F0E011A18F70BE0101C0660F8A95AB
:10214000EAF7962F9095912391A382A1862B82A3E3
:102150004F5F5F4F4530510531F72B5F3F4F81E0B7
:1021600026313807E9F6DF91CF911F910895CF937B
:10217000DF93AC01A62FB0E085E0689FF001112449
:10218000EE5FFE4F75E081E060E091919F3F81F04E
:10219000C92FC295CF70D0E028A130E09F7002C057
:1021A000359527959A95E2F7982F20FD90E0692BB9
:1021B000880F715051F7A40FB51F6C93DF91CF9129
:1021C0000895A4E1B0E0E7EEF0E10C941F238091C4
:1021D0001601811126C084E1E0E4F1E0DE011196F0
:1021E00001900D928A95E1F7FE013196A2E0B1E0EF
:1021F000CE01459620812C93218111962C93119725
:10220000228112962C931297238113962C93139765
:10221000248114962C931497359615968E179F0744
:1022200049F78091160194E0811190E09093E502C6
:1022300084E0891B8093D4020E94891088E0EDED30
:10224000F2E0DF01982F1D929A95E9F7E5EDF2E0B3
:10225000DF011D928A95E9F784E00E9473110E94C4
:102260006B026496E2E00C943B23A8E0B0E0EBE361
:10227000F1E10C941C238E010F5F1F4F88E0F801E1
:1022800011928A95E9F7F12C6F2DC8010E94B710C1
:10229000F394F4E0FF12F8CF48E050E0B80185ED88
:1022A00092E00E945A2321E0009709F420E0892B54
:1022B00041F088E0F801A5EDB2E001900D928A9519
:1022C000E1F76091E50270E063527D4F44E085EDF7
:1022D00092E00E947411182F0E942410812B2896DE
:1022E000E5E00C9438230895CF92DF92EF92FF92AD
:1022F0000F931F93CF936C017B01042F222349F08E
:1023000081E0809374020E94D11B909373028093AA
:102310007202C0917402C1110AC0C0E08C2FCF912B
:102320001F910F91FF90EF90DF90CF9008958091D3
:102330007202909173020E94E91B059770F310E0FE
:10234000A801B601C7010E945A23892B41F0A801B8
:10235000B601C7010E94672310927402DFCFC0E06C
:10236000FBCF80917702811107C00E94E822882369
:1023700051F081E08093770281E090917702913073
:1023800009F080E0089582E0809377020E94E322C2
:10239000F3CF0E94B11108950E94C91180931601D4
:1023A0000E94B11181110E941A1208950E94B11168
:1023B000811102C00E941D12089581E0909178025F
:1023C0009A3008F080E008950F931F93CF93DF9326
:1023D000EC018B01809178028A30B8F4B801CE010B
:1023E0000E946812C82F811122C0809178028F3F0D
:1023F000B9F40E94D11B90937602809375028C2FC2
:10240000DF91CF911F910F91089580917502909166
:1024100076020E94E91B843F914000F7C0E0EFCFB5
:102420008F5F809378028A3020F7C1E0E8CF109266
:102430007802E5CF0E946E1808950E9471180895E1
:10244000B0E0A0E0E6E2F2E10C941A237901C82F93
:10245000880FDD0B41155105A9F0FE0193E0EE0F49
:10246000FF1F9A95E1F7E95EFE4F818192818758BF
:102470009D4F208130E04217530708F49A01A901CB
:102480000E946723CE010E945A19D82E8823D1F0CA
:1024900001151105B9F083E0CC0FDD1F8A95E1F736
:1024A000FE01E95EFE4F438150E00417150708F472
:1024B000A801C95EDE4F6C817D8167587D4FC701E1
:1024C0000E9467238D2DCDB7DEB7E7E00C9436234D
:1024D0000E94621308950E9479130895A4E0B0E069
:1024E000E4E7F2E10C941D2360918E0270918F025B
:1024F00080919002909191020E94F81B11E0643645
:1025000071058105910518F10E94BA0F6E5F7F4F2A
:102510008F4F9F4F69837A838B839C8310E000E009
:1025200030E020E044E050E0BE016F5F7F4F82E08A
:102530000E942012182F882351F00E94DD1B609307
:102540008E0270938F028093900290939102812F5C
:102550002496E4E00C943923B0E0A0E0E2EBF2E151
:102560000C9417237C015B016A010E94DD1101E0DC
:1025700010E0882311F00AE010E0C1E0D0E0B501DE
:10258000C701F6010995811104C021960C171D079A
:102590002CF4CDB7DEB7EAE00C943323CC9F900146
:1025A000CD9F300D300D112490E080E045E34A9539
:1025B000F1F70000019682179307C1F7E0CFA5E07D
:1025C000B0E0E5EEF2E10C9417235B01E090BE0170
:1025D000F090BF0101E010E09E012B5F3F4F50E003
:1025E00040E070E060E080E00E942012182F882315
:1025F00009F44BC067018FEFC81AD80A60918A02AC
:1026000070918B0280918C0290918D020E94F81B38
:10261000643671058105910580F104E010E09E01AA
:102620002F5F3F4F50E040E070E060E081E00E94AB
:102630002012F82E64E070E0C6010E944F1611E0EF
:102640009D81981310E01F2159F10E94DD1B6093BA
:102650008A0270938B0280938C0290938D02898101
:102660009A81AB81BC818093860290938702A0936C
:102670008802B093890211E013C064E070E0C601E3
:102680000E944F169D818913C8CFF70181819281E5
:10269000A381B48189839A83AB83BC831111DFCF7B
:1026A0008091860290918702A0918802B091890260
:1026B000F50180839183A283B383812F2596EAE07D
:1026C0000C9433230F931F93CF93DF93EC018B0173
:1026D0004FED52E10E94AC12882331F04EE652E1F8
:1026E000B801CE010E94AC12DF91CF911F910F91E2
:1026F00008950F931F93CF93DF93C091BE01D091A4
:10270000BF01CE01019624E0FB01DC0101900D9296
:102710002A95E1F764E070E00E944F1688836D818E
:102720007E818F8198850091820210918302209191
:10273000840230918502601771078207930751F078
:102740006093820270938302809384029093850247
:102750000E949D0FDF91CF911F910F9108950E94CC
:10276000BE1D0E941E0D0E94CB1D08950E94D01D0B
:102770000E942F0D0E94EA1D08950E946A1B0E946C
:10278000A41D0E94060D0E94AF130E94B6130E9462
:10279000140DFBCF8091980280FF0DC06091340131
:1027A00070E0660F771F6038710570F5611571056F
:1027B00069F1862F089581FF07C06091340184E09C
:1027C000689FB0011124EFCF6091340182FD0AC0EF
:1027D000809197028823A9F0209133016091340100
:1027E000821710F088E0ECCF869FC001112433E0FF
:1027F000880F991F3A95E1F7622F70E00E94F52249
:10280000D2CF68E070E0D5CF8FE7089581E00895DA
:102810008091980280FF0CC06091300170E0759546
:102820006795759567956115710549F1862F08952E
:1028300081FF06C06091300170E075956795F3CF18
:102840006091300182FD0BC0909196029923A1F016
:1028500060912F0180913001961738F0682F70E059
:102860006038710500F38FE70895899FC001112436
:1028700070E00E94F522F4CF61E070E0D7CF81E0F4
:1028800008958D3C31F40E94CA13819580939C0277
:1028900008958E3C19F40E94CA13F8CF8F3C31F48E
:1028A0000E94CA13819580939B020895803D19F47C
:1028B0000E94CA13F8CF893D29F40E94081480931E
:1028C0009D0208958A3D21F40E9408148195F7CF56
:1028D0008B3D31F40E940814819580939E020895E7
:1028E0008C3D19F40E940814F8CF9FE2980F98309D
:1028F00070F4815D990B21E030E001C0220F8A95D0
:10290000EAF780919A02822B80939A0208958D3D76
:1029100031F48091980281608093980208958E3DF1
:1029200021F4809198028260F7CF8F3DB9F78091B2
:1029300098028460F1CF40919B028D3C59F48091C4
:102940009C0287FF0DC010929C0241110BC0109297
:10295000970208C08E3C81F480919C0218169CF36B
:10296000442381F080919D0290919E02892B09F071
:102970005AC01092960208958F3C49F447FFF0CF59
:1029800010929B0280919C028111ECCFE0CF803DA0
:1029900019F41416ACF3E4CF90919D02893D29F40B
:1029A0001916F4F610929D02DBCF8A3D19F497FFB9
:1029B000D7CFF8CF90919E028B3D29F497FFD0CFCF
:1029C00010929E02CDCF8C3D19F41916CCF3C8CFCE
:1029D0009FE2980F983090F4815D990B21E030E0F0
:1029E000B90102C0660F771F8A95E2F7CB01809587
:1029F00090919A02892380939A02B2CF8D3D31F44F
:102A0000809198028E7F80939802AACF8E3D21F408
:102A1000809198028D7FF7CF8F3D09F0A1CF8091F3
:102A200098028B7FF0CF08950E94D11B9C0190915A
:102A30009B0280919C02982B21F030939502209369
:102A4000940290919D0280919E02982B21F03093E8
:102A500093022093920289E992E00E94081A089555
:102A600086E0E9E9F2E0DF011D928A95E9F710922C
:102A7000970210929602109298020895FC018281AA
:102A800081110EC0838181110BC08481811108C026
:102A900091E08581811101C090E0892F81700895B6
:102AA00081E0FCCFA6E0B0E0E8E5F5E10C941E2360
:102AB00086E0E9E9F2E0DE01119601900D928A9537
:102AC000E1F710929B0210929C0210929D021092CC
:102AD0009E028B819C81892B89F080919402909138
:102AE00095020E94E91BAC01909197029923C9F1CC
:102AF000809135018417150608F440C08D819E81B0
:102B0000892B91F080919202909193020E94E91B8F
:102B1000AC0190919602992309F471C08091310122
:102B20008417150608F479C0BE016F5F7F4F89E9ED
:102B300092E00E94221B811105C089E992E00E9467
:102B40003E1581110E94141586E0FE013196A9E917
:102B5000B2E001900D928A95E1F72696E3E00C949D
:102B60003A23209136018AE0289F900111242417EE
:102B7000350720F69F5F9093970202C09F3FD1F7E1
:102B80001B81112359F00E94CA139FEF11160CF4F8
:102B900091E0899F802D112480939B021C81112339
:102BA00059F00E94CA139FEF11160CF491E0899F0F
:102BB000802D112480939C0230919B02332309F4D1
:102BC0009DCF20919C02222309F498CF45EB34033A
:102BD000C0011124992359F090939B0245EB2403E3
:102BE00090011124332339F030939C0287CF81E088
:102BF00080939B02F3CF81E080939C027FCF209152
:102C000032018AE0289F900111242417350708F02B
:102C10008BCF9F5F9093960202C09F3FD1F71D819B
:102C2000112359F00E9408149FEF11160CF491E043
:102C3000899F802D112480939D021E81112359F0BC
:102C40000E9408149FEF11160CF491E0899F802DCB
:102C5000112480939E0230919D02332309F464CFA6
:102C600020919E02222309F45FCF45EB3403C0017B
:102C70001124992359F090939D0245EB2403900170
:102C80001124332339F030939E024ECF81E080939C
:102C90009D02F3CF81E080939E0246CF0895FC0110
:102CA000680F791F8FEF91E36E177F0709F408957E
:102CB0002191822728E030E087FF06C0880F89270E
:102CC00021503109C9F7F0CF880FFACFCF93DF93A6
:102CD000EC01FB018281882309F4D2C09E013057A8
:102CE0002332310508F0B2C00E94670C9093D302E2
:102CF0008093D202FE01E150F047E232F10520F468
:102D0000E054FC4D0C9409238091D20281608093A1
:102D1000D20293C08091D30288608093D3028DC089
:102D20008091D2028260F3CF8091D2028460EFCF93
:102D30008091D2028860EBCF8091D3028160EDCF89
:102D40008091D3028260E9CF8091D2028061DFCF8F
:102D50008091D2028062DBCF8091D2028064D7CF93
:102D60000E944B048091D2028068D1CF8091D20220
:102D70008C60CDCF8091D3028360CFCF8091D2027F
:102D80008E7FC5CF8091D302877FC7CF8091D2023B
:102D90008D7FBDCF8091D2028B7FB9CF8091D2023F
:102DA000877FB5CF8091D3028E7FB7CF8091D3023A
:102DB0008D7FB3CF8091D2028F7EA9CF8091D20236
:102DC0008F7DA5CF8091D2028F7BA1CF0E944B0433
:102DD0008091D2028F779BCF8091D202837F97CF51
:102DE0008091D3028C7F99CF8091D20282FB992768
:102DF00090F921E0922790FB82F990FB83F987CF2D
:102E00008091D302982F909591708E7F892B90FBA3
:102E100081F983CF9091D202892F8F7B96FF8064B6
:102E200076CF0E944B049091D202892F97FB87F9AD
:102E300080586DCF81E00E94E40C8091D202909185
:102E4000D3020E946C0C0E944B0480E0DF91CF9172
:102E5000089580E0F0CF9091D202892F8F7E94FF69
:102E6000806155CF9091D202892F8E7F90FF816033
:102E70004ECF9091D302892F877F93FF88604DCFEB
:102E800081E0E4CFCF93DF93EB0186319C4711F5CE
:102E90000E94640B9A81992399F08A7A91E009F44F
:102EA00090E090939F02811109C089E20E943C0B3F
:102EB0000E94A50B80E0DF91CF91089585E3F6CFC6
:102EC00080919F02811104C089E20E94440BF0CFDF
:102ED00085E3FBCF81E0EFCF0F931F93CF93DF9379
:102EE000C42FD22FFC0182818823C9F04093A20213
:102EF0000E94D11B9093A1028093A00280E28C0FCC
:102F0000883040F4C77081E001C0880FCA95EAF7A5
:102F10000E942704DF91CF911F910F910895109186
:102F2000A202141332C08091A0029091A1020E94CB
:102F3000E91B813E910548F5C0E2CD0F1D17B9F0A0
:102F400080E2810F883040F4177081E001C0880F63
:102F50001A95EAF70E942E04C83048F481E09D2FAC
:102F6000977001C0880F9A95EAF70E942704802F76
:102F70000E941E04C83070F6D77081E001C0880F2F
:102F8000DA95EAF70E942E04C5CF80E28C0F8830D4
:102F900008F6C77081E001C0880FCA95EAF7F2CF42
:102FA0000F93DB0188519C4787309105A0F5FC0108
:102FB000EE51FC4D0C94092306E221EE41EE6AE14C
:102FC0007CE7CD010E946C1780E00F91089507E225
:102FD00025EE45EE6BE17CE7F4CF06E221EE40EE14
:102FE00068E17CE7EECF07E225EE44EE69E17CE79D
:102FF000E8CF06E221EE42EE6CE17CE7E2CF07E2A9
:1030000025EE46EE6DE17CE7DCCF08E221E045EEFF
:103010006EE17CE7D6CF12968C91882319F010923E
:10302000A202D3CF81E0D1CF8EE14B9B02C0815071
:10303000E1F74B9BFECF08955B9880E28A95F1F70C
:103040005B9A0895FC013BE03A95F1F798E020E0A7
:1030500080E031E040E14A95F1F7880F4B9B02C0D8
:103060008160232742E04A95F1F7000040E14A954C
:10307000F1F7915079F790E19A95F1F799B132E033
:103080003A95F1F7000040E14A95F1F793FB992753
:1030900090F992272081920F90830895A1E0B0E0EB
:1030A000E4E5F8E10C941B2319828C017C01E60E07
:1030B000F11C0E151F0541F481E09981911180E00A
:1030C0002196E6E00C9437230E941418CE01019655
:1030D0000E942218F80181938F01EBCF539A5B9ADB
:1030E000089553985B9AEB9AE9E6F0E080818F733C
:1030F000808308956150770B91E001C0990F6A9524
:10310000EAF720E031E0911108C0222391F05B9AA8
:1031100080E28A95F1F75B980895492F482339F0AA
:103120005B9A232740E24A95F1F79695ECCF5B989E
:10313000F9CF5B98EDCFFF920F931F93CF93DF935F
:10314000EC018C01060F111DC017D10729F4CDB772
:10315000DEB7E5E00C943823F9900E941C1868E073
:103160008F2D0E947A18F0CF1F920F920FB60F92F8
:1031700011240F931F932F933F934F935F936F935C
:103180007F938F939F93AF93BF93EF93FF93CF93CF
:10319000DF930F92CDB7DEB719820E941418CE01CB
:1031A00001960E942218082F069506950695282F4D
:1031B00022952570902F9570290F922F9370269548
:1031C0002695920F982797708981982B09F05CC0FB
:1031D000043008F059C080E18A95F1F75B9A539A60
:1031E00082E08A95F1F700C05B9888E0089F800133
:1031F0001124D801A95EBE4F1696ED91FC91179748
:103200003097A9F06091BE017091BF0114962D9185
:103210003C911597260F371F11968D919C9112970F
:10322000680F791F13964C9113978C910995F801AB
:10323000E95EFE4F6381662351F02091BE0130911B
:10324000BF0184819581820F931F0E949B180E9469
:103250001C1880E18A95F1F75B9853985B9A80E19E
:103260008A95F1F7F801E95EFE4F6081662351F01F
:103270002091BE013091BF0181819281820F931F05
:103280000E944E180E9414180F90DF91CF91FF9169
:10329000EF91BF91AF919F918F917F916F915F91CE
:1032A0004F913F912F911F910F910F900FBE0F9053
:1032B0001F9018950F931F93CF93DF93EC01049702
:1032C0000CF04CC0F894539A5B9885E08A95F1F71E
:1032D00000009C2F969595708C2F8570980F892FE4
:1032E00083709695969523E0CC0FDD1F2A95E1F724
:1032F000980F8E01092B0E941C1800C068E0802FD7
:103300000E947A1880E18A95F1F753985B9A4B9B5B
:103310001EC087E090E04B991CC0FE01E95EFE4FA5
:1033200063816623F9F02091BE013091BF01848151
:103330009581820F931F0E944E18811113C0539ADA
:103340005B9A7894DF91CF911F910F91089500C0FF
:10335000DECF019729F4539A5B9A789480E0F2CFFC
:1033600000C0D9CF0E94141880E28A95F1F75B98CB
:10337000539A80E18A95F1F7C95EDE4F6881662332
:1033800051F02091BE013091BF0189819A81820F55
:10339000931F0E949B180E941C18789481E0D2CF42
:1033A0009093C1018093C00108959093A9028093E6
:1033B000A80208950E94B111811103C08091A30257
:1033C0000895E091A802F091A902309729F00190A8
:1033D000F081E02D0995089580E00895E091A8021C
:1033E000F091A902309799F020913F01222359F0E2
:1033F0002091D20227FF07C0DC012C9111962C935B
:10340000119726E02C930280F381E02D0995089511
:10341000E091A802F091A902309739F022E0DC0196
:103420002C930480F581E02D09950895A3E0B0E088
:10343000ECE1FAE10C941F232091A6023091A7023F
:1034400028173907A1F09093A7028093A602E09174
:10345000A802F091A902309751F023E029839B83C1
:103460008A830680F781E02DCE0101960995239687
:10347000E2E00C943B23A3E0B0E0E1E4FAE10C9439
:103480001F232091A4023091A50228173907A1F02B
:103490009093A5028093A402E091A802F091A90262
:1034A000309751F024E029839B838A830680F7813B
:1034B000E02DCE01019609952396E2E00C943B2382
:1034C000FC01329680913F01882321F08091D20245
:1034D0009EE187FF96E080E0915008F408952191E5
:1034E0002223D1F38F5FF8CF662301F120913F01B2
:1034F0002223F1F02091D20227FF1AC0462F4695D1
:10350000469546954E3190F4677021E030E002C058
:10351000220F331F6A95E2F7840F911DFC0182810F
:1035200090E02823392381E0232B69F480E008957B
:10353000FC01329608962191261721F0E817F90729
:10354000D1F7F4CF81E008959C01FC0132969FEF02
:1035500080E04191461751F09F3F19F4411101C09D
:10356000982F8F5F8630A9F79F3F09F40895290FA0
:10357000311D97FD3A95F90162830895FC01329659
:1035800008962191261303C0DF0111971C92E817BA
:10359000F907B9F70895E62FE695E695E695EE3139
:1035A00068F4E80FF92FF11D677021E030E001C0E9
:1035B000220F6A95EAF78281822B82830895E62F93
:1035C000E695E695E695EE3170F4E80FF92FF11DDA
:1035D000677021E030E001C0220F6A95EAF720957C
:1035E000828128232283089520913F01222339F0EC
:1035F0002091D20227FF03C00E94CB1A08950E9497
:10360000A41A089520913F01222339F02091D2027B
:1036100027FF03C00E94DF1A08950E94BE1A089572
:10362000FC01329680913F01882351F08091D202B3
:1036300087FF06C08EE1DF011D928A95E9F70895A4
:1036400086E0F9CF46E050E00E945A2321E0892B22
:1036500009F420E0822F089508950E942C1B0895FC
:10366000811106C081E08093AA020E942D1B08955B
:1036700082E0F9CF83E08093AA020E942D1B089577
:103680000E94301B089581E08093AA020E942D1BA6
:1036900008950E94431B0895089508950E944D1BAC
:1036A0000895089508950E944C1B0895CF930E9499
:1036B000511B0E9435110E94521BC0E08C2F0E94AA
:1036C0001910811105C0CF5FC830C1F7CF9108959F
:1036D00081E0FCCF85B7806885BF85B7806885BFEE
:1036E00008951F921FB61F9211248F939F93AF933B
:1036F000BF938091AB02811113C08091E60290913B
:10370000E702A091E802B091E9024196A11DB11D26
:103710008093E6029093E702A093E802B093E90257
:10372000BF91AF919F918F911F901FBE1F901895D1
:103730008091EE02843031F10E94E0021092AB02DF
:1037400088E190E020E40FB6F894A895809360009B
:103750000FBE2093600083B7817F846083BF83B7EF
:10376000816083BF7894889583B78E7F83BF0FB6BF
:10377000F894A89580916000886180936000109211
:1037800060000FBE08950E944B040E94E502089558
:1037900082E084BD93E095BD9AEF97BD80936E0063
:1037A00008952FB7F8948091E6029091E702A091D6
:1037B000E802B091E9022FBF08952FB7F894609105
:1037C000E6027091E7028091E8029091E9022FBF32
:1037D00008959C014FB7F8948091E6029091E7021A
:1037E000A091E802B091E9024FBF821B930B0895AC
:1037F000CF92DF92EF92FF922FB7F894C090E6023B
:10380000D090E702E090E802F090E9022FBFA70114
:103810009601261B370B480B590BCA01B901FF90C3
:10382000EF90DF90CF90089578941F921FB61F926B
:1038300011248F939F93AF93BF938091E602909151
:10384000E702A091E802B091E9020196A11DB11D25
:103850008093E6029093E702A093E802B093E90216
:10386000BF91AF919F918F911F901FBE1F90189590
:1038700087E797E7909301088093000888E19AE032
:103880000FB6F894A895809360000FBE90936000E7
:10389000FFCF88E19AE00FB6F894A8958093600076
:1038A0000FBE90936000FFCF8091CC0208959B01E2
:1038B000BA019091EE029430E9F48F708093E900A0
:1038C0009FEF8091E800915085FD06C085ED8A95B7
:1038D000F1F700009111F5CF8091E80085FF0AC053
:1038E00050E040E0C9010E945C1E8091E8008E77A4
:1038F0008093E800089543E050E0BC0182E00E941C
:10390000571C089546E050E0BC0182E00E94571C1D
:103910000895CF93DF93EC0180913F01811111C095
:1039200048E050E0BE0181E00E94571C80E2FE01A9
:10393000ACEAB2E001900D928A95E1F7DF91CF9168
:1039400008958091D20287FF05C040E282E050E0F6
:10395000BE01EACF48E081E0FACF8091ED0281110B
:1039600009C00E94EC1F0E9449208091E2008460FF
:103970008093E20008951092ED0208950E94431B87
:1039800008956091EA0281E0611101C080E00E9427
:103990003A1B08959091EE0281E0943009F080E0A6
:1039A0006091EA020E94401B089542E061EC81E0D0
:1039B0000E94681F42E261EC82E00E94681F9091C1
:1039C000EE0281E0943009F080E06091EA020E940A
:1039D000301B08958091F002833009F461C030F407
:1039E0008130D1F1823009F49EC008958A3009F403
:1039F0008AC08B3009F46FC0893009F050C08091C3
:103A0000EF02813209F04BC08091F3029091F402F1
:103A1000029708F044C08091E800877F8093E80017
:103A20008091E80082FF37C09091F3008091F2000E
:103A3000029731F48091F100813011F0863021F449
:103A40008091F1008093CC028091E8008B77809385
:103A5000E8000E949C1F23C08091EF02813AF9F494
:103A60008091E800877F8093E8008091F302909135
:103A7000F402892B61F460E28CEA92E070E00E942B
:103A8000AB1E8091E8008B778093E800089560E09A
:103A900090E080E0F3CF8091EE028111C1CF0895D4
:103AA0008091EF02813AD9F78091F3029091F4026C
:103AB000892BA9F78091E800877F8093E8008091A7
:103AC000E80080FFFCCF80913F018093F10080915E
:103AD000E8008E77BCCF8091EF02813201F78091B0
:103AE000F3029091F402892BD1F68091E800877F50
:103AF0008093E8000E949C1F8091F10280933F0117
:103B00000E944B0408958091EF02813241F680912A
:103B1000E800877F8093E8000E949C1F8091F2025A
:103B20008093CD0208958091EF02813A09F0B7CFDA
:103B30008091E800877F8093E8008091E80080FF13
:103B4000FCCF8091CD02C1CF84B7877F84BF0FB6F1
:103B5000F894A8958091600088618093600010922D
:103B600060000FBE80E890E00FB6F894809361008B
:103B7000909361000FBE0E94491B08950E94EC1FA4
:103B80000E944920E2EEF0E0808184608083789496
:103B90000E94C822089587E391E00E94D5190895F4
:103BA0008091EE02853031F48091EE02853019F07B
:103BB0000E94C31B08950E94981B8091EC028823E9
:103BC00099F30E94561B882379F30E94461E0E9497
:103BD0004B04EACF08950E94EE1D0895292F332744
:103BE0002330310519F168F42130310509F444C05E
:103BF0002230310509F445C090E080E030E020E05B
:103C000025C02132310549F122323105A9F780E47E
:103C100090E02BE733E061157105C1F086EB90E091
:103C200025EC32E06130710589F0E6CF99278130CB
:103C3000910581F0009729F00297F1F6ECE3F2E0AC
:103C400002C0E4E7F2E0849190E09F01FA01318341
:103C500020830895EEE4F2E0F6CF89E090E02AE8D0
:103C600032E06115710591F389E090E023EA32E0DA
:103C70006130710559F3C0CF82E190E023EB32E06F
:103C8000E5CF8BE390E028E732E0E0CF80E189BD2B
:103C900082E189BD09B400FEFDCF8091D8008F7DFF
:103CA0008093D8008091E00082608093E000809152
:103CB000E00081FDFCCF0895AF92BF92CF92DF92DA
:103CC000FF920F931F93CF93DF936C01EB018A0157
:103CD0000E94BB1FF82E811123C00115110539F078
:103CE000F80180819181C81BD90BC80ED91EB12C57
:103CF000A12C2097A9F08091E80085FD22C0809139
:103D0000E8008E778093E80001151105A1F0F80115
:103D100080819181A80EB91EB182A08285E0F82E23
:103D20008F2DDF91CF911F910F91FF90DF90CF905A
:103D3000BF90AF9008950E94BB1F8823D1F2F82E48
:103D4000EFCFF60181916F018093F1002197FFEF92
:103D5000AF1ABF0ACECFFC018091F5029091F60216
:103D600086179707A0F06115710529F49091E80076
:103D70009E779093E80090E06115710551F49111E0
:103D800008C08091E80082FF34C080E00895BC0143
:103D9000F2CF8091EE028823C1F18530C1F180918C
:103DA000E80083FD30C08091E80082FDEACF809179
:103DB000E80080FFE1CF8091F3002091F200382FDE
:103DC0006115710519F02830310558F091E028305F
:103DD000310509F090E02091E8002E772093E8006B
:103DE000CBCF81918093F100615071092F5F3F4FDC
:103DF000E7CF8091EE02882341F0853041F0809139
:103E0000E80083FFBECF81E0089582E0089583E05B
:103E10000895FC018091F5029091F60286179707AC
:103E2000A0F06115710529F48091E8008E778093E8
:103E3000E80090E06115710551F4911108C080917E
:103E4000E80082FF35C080E00895BC01F2CF809188
:103E5000EE028823C9F18530C9F18091E80083FD25
:103E600031C08091E80082FDEACF8091E80080FFB8
:103E7000E1CF8091F3002091F200382F6115710598
:103E800019F02830310558F091E02830310509F05B
:103E900090E08091E8008E778093E800CBCF84910A
:103EA0008093F1003196615071092F5F3F4FE6CF4B
:103EB0008091EE02882341F0853041F08091E80046
:103EC00083FFBDCF81E0089582E0089583E00895E7
:103ED000982F973028F08F708093E90081E0089543
:103EE0009093E900242F762F50E0981731F07091CD
:103EF000EC002091ED005091F00021FD02C09F5F89
:103F0000E8CF3091EB003E7F3093EB003091ED0035
:103F10003D7F3093ED003091EB0031603093EB004A
:103F20007093EC002093ED005093F0002091EE0090
:103F300027FDE5CF80E008958091EF0287FF13C051
:103F40008091E80082FF06C08091E8008B77809323
:103F5000E80004C08091EE028111F2CF08958091B3
:103F6000EE028823D9F38091E80080FFF8CF80919A
:103F7000E8008E77ECCF2091E4003091E50095E6E3
:103F8000A9012091EC00822F817020FF06C0809152
:103F9000E80080FF06C080E008952091E80022FD3F
:103FA0001AC08091EE02882389F0853089F08091D3
:103FB000EB0085FD0FC02091E4003091E500421731
:103FC0005307F9F29150E1F684E0089582E00895F4
:103FD00083E0089581E008950E945B200E946320A1
:103FE000E0EEF0E0808181608083E8EDF0E08081A8
:103FF0008F77808319BCA7EDB0E08C918E7F8C9376
:1040000080818F7E80831092ED0208950F931F931D
:10401000CF93DF930E945B200E946320C8EDD0E025
:1040200088818F77888388818068888388818F7D65
:10403000888319BC1092EE021092EA021092EC02F0
:104040001092EB0200EE10E0F80180818B7F8083FC
:1040500088818160888342E060E080E00E94681F80
:10406000E1EEF0E080818E7F8083E2EEF0E08081FF
:1040700081608083808188608083F80180818E7F69
:104080008083888180618883DF91CF911F910F9118
:104090000895E8EDF0E080818F7E8083E7EDF0E029
:1040A00080818160808384E082BF81E08093ED0223
:1040B0000E9406200895E8EDF0E080818E7F8083E5
:1040C0001092E20008951092DA001092E100089533
:1040D0001F920F920FB60F9211242F933F934F937D
:1040E0005F936F937F938F939F93AF93BF93EF9360
:1040F000FF938091E10082FF0BC08091E20082FF7C
:1041000007C08091E1008B7F8093E1000E94C7226D
:104110008091DA0080FF19C08091D80080FF15C01F
:104120008091DA008E7F8093DA008091D90080FF41
:1041300096C080E189BD82E189BD09B400FEFDCF52
:1041400081E08093EE020E94AD1C8091E10080FF2F
:1041500019C08091E20080FF15C08091E2008E7F3F
:104160008093E2008091E20080618093E200809180
:10417000D80080628093D80019BC85E08093EE025D
:104180000E94C11C8091E10084FF2BC08091E2005D
:1041900084FF27C080E189BD82E189BD89B5982F60
:1041A000917080FFFBCF8091D8008F7D8093D800E5
:1041B0008091E1008F7E8093E1008091E2008F7E0C
:1041C0008093E2008091E20081608093E200809120
:1041D000EA02882309F449C084E08093EE020E9439
:1041E000CA1C8091E10083FF29C08091E20083FF17
:1041F00025C08091E100877F8093E10082E0809379
:10420000EE021092EA028091E1008E7F8093E1003D
:104210008091E2008E7F8093E2008091E2008061D5
:104220008093E20042E060E080E00E94681F80919D
:10423000F00088608093F0000E94BE1CFF91EF9117
:10424000BF91AF919F918F917F916F915F914F91AE
:104250003F912F910F900FBE0F901F90189519BC92
:104260001092EE020E94BB1C70CF8091E30087FD8C
:1042700093E09093EE02B3CF1F920F920FB60F927E
:1042800011242F933F934F935F936F937F938F935B
:104290009F93AF93BF93CF93DF93EF93FF93D0910F
:1042A000E900DF708091EC00C82FC17080FDC0E88C
:1042B0001092E9008091F000877F8093F00078945D
:1042C0000E9480211092E9008091F0008860809324
:1042D000F000CD2BCF70C093E900FF91EF91DF91FB
:1042E000CF91BF91AF919F918F917F916F915F918E
:1042F0004F913F912F910F900FBE0F901F901895E7
:10430000AAE2B0E0E6E8F1E20C941E238FEE92E020
:104310002091F100FC012193CF01F2E0873F9F073C
:10432000B9F70E94EA1C8091E80083FF1EC18091CA
:10433000EF029091F0029A3008F017C1E92FF0E0F7
:10434000E751FC4D0C940923803899F0823809F02C
:104350000CC18091F3028F70873008F006C1809302
:10436000E9008091EB0085FB882780F91092E90035
:1043700006C08091EB029091EC02911182609091C5
:10438000E800977F9093E8008093F1001092F1008D
:104390008091E8008E77E5C0882309F4D3C082308D
:1043A00009F0E3C08091F1028111D6C08091F3023F
:1043B0008F702FEF280F263008F0D7C08093E900C8
:1043C0002091EB0020FFC8C0933031F48091EB00C6
:1043D00080628093EB00C0C09091EB00906190935D
:1043E000EB0021E030E001C0220F8A95EAF720932C
:1043F000EA001092EA008091EB008860EACF811118
:10440000B4C01091F1021F778091E3008078812B76
:104410008093E3008091E800877F8093E8000E940A
:104420009C1F8091E80080FFFCCF8091E3008068B2
:104430008093E30082E0111183E08093EE0295C047
:104440008058823008F091C08091F1029091F20280
:104450008C3D23E09207A1F583E08A838AE2898379
:104460004FB7F894DE01139620E03EE051E2E32FCF
:10447000F0E050935700E49120FF03C0E295EF7005
:104480003F5FEF708E2F90E0EA30C0F0C7968D93BB
:104490009D932F5F243159F74FBF8091E800877FAC
:1044A0008093E8006AE270E0CE0101960E94AB1EA4
:1044B0008091E8008B778093E80057C0C096E7CFE3
:1044C0006091F3027091F402AE014F5F5F4F0E9462
:1044D000EB1DBC01892B09F448C09091E800977F3F
:1044E0009093E80089819A810E94091FE1CF80386A
:1044F000E1F58091E800877F8093E8008091EA02EF
:104500008093F10045CF811130C09091F10292303B
:1045100060F58091E800877F8093E8009093EA023D
:104520000E949C1F8091EA02882311F084E005C05C
:104530008091E30087FDFACF81E08093EE020E9434
:10454000D51C13C08091F102813079F481E0933061
:1045500009F080E08093EC021092E9008091E8007D
:10456000877F8093E8000E949C1F8091E80083FF72
:104570000AC08091E800877F8093E8008091EB007B
:1045800080628093EB00AA96E3E00C943A230895AE
:10459000CF938091EE028823A1F0C091E900CF7003
:1045A0009091EC00892F817090FD80E8C82B1092CB
:1045B000E9008091E80083FD0E948021CF70C093C4
:1045C000E900CF9108950E94EC1F1092EE02089529
:1045D000E8EDF0E08081806180838AE18A95F1F7DF
:1045E00000C08091D9008170089597FB072E16F4C2
:1045F000009407D077FD09D00E94462307FC05D020
:104600003EF4909581959F4F0895709561957F4FE9
:104610000895EE0FFF1F0590F491E02D09942F925D
:104620003F924F925F926F927F928F929F92AF9242
:10463000BF92CF92DF92EF92FF920F931F93CF938F
:10464000DF93CDB7DEB7CA1BDB0B0FB6F894DEBF26
:104650000FBECDBF09942A88398848885F846E844C
:104660007D848C849B84AA84B984C884DF80EE8096
:10467000FD800C811B81AA81B981CE0FD11D0FB69F
:10468000F894DEBF0FBECDBFED010895AA1BBB1B82
:1046900051E107C0AA1FBB1FA617B70710F0A61B42
:1046A000B70B881F991F5A95A9F780959095BC0163
:1046B000CD010895FB01DC0104C08D9101908019AA
:1046C00021F441505040C8F7881B990B0895FB0115
:1046D000DC0102C001900D9241505040D8F708957E
:1046E000F999FECF92BD81BDF89A992780B50895BA
:1046F000A8E1B0E042E050E00C94A423262FF99901
:10470000FECF92BD81BDF89A019700B4021639F030
:104710001FBA20BD0FB6F894FA9AF99A0FBE089501
:104720000396272F0E947F230E947E23252F0E941D
:104730007F23242F0C947F230196272F0E947F2311
:104740000C947E23DC01CB01FC01F999FECF06C05D
:10475000F2BDE1BDF89A319600B40D92415050403F
:10476000B8F70895F894FFCFB704B704EA04EA0451
:104770007F059905160516059E05110622062206D7
:10478000BE163217C61690169416CA169816CE166E
:10479000DA16A4162B17A816DE16AC16E2160A17A0
:1047A000B016E6161117B616EC16F4169C16D216AD
:1047B000A016D616BA16F01600171A1729178A1659
:1047C000C2163917ED17F317DC17E717F917FF179C
:1047D0000518A421CC21B522CC21B522FF2120220D
:0647E000B52277228322BE
:1047E6003C029290F6973391F5663134F494F7C60D
:1047F60032FFFFFF36350100000001000000000017
:10480600000004010000000405000000000000286C
:104816000850011E0A1401541C891C821C7B1C01B1
:104826009290F6973391F5663134F494F7C632FFD9
:10483600FFFF3635E200E900EA00B500B600B70032
:10484600CD008301CC008A0192019401210223024A
:1048560024022502260227022A02B300B4006F00B2
:1048660070009F01CB01818283E200E900EA00B576
:1048760000B600B700CD008301CC008A01920194F6
:10488600012102230224022502260227022A02B35C
:1048960000B4006F0070009F01CB01818283790212
:00000001FF
